{"abi":[{"type":"function","name":"getAllComputePools","inputs":[],"outputs":[{"name":"","type":"uint256[]","internalType":"uint256[]"}],"stateMutability":"view"},{"type":"function","name":"getNodeInfo","inputs":[{"name":"nodeId","type":"uint256","internalType":"uint256"}],"outputs":[{"name":"","type":"tuple","internalType":"struct INodeManager.NodeInfo","components":[{"name":"cp","type":"address","internalType":"address"},{"name":"nodeId","type":"uint256","internalType":"uint256"},{"name":"computeRating","type":"uint256","internalType":"uint256"}]}],"stateMutability":"view"},{"type":"function","name":"getNodeOwner","inputs":[{"name":"nodeId","type":"uint256","internalType":"uint256"}],"outputs":[{"name":"","type":"address","internalType":"address"}],"stateMutability":"view"},{"type":"function","name":"getNodesInPool","inputs":[{"name":"poolId","type":"uint256","internalType":"uint256"}],"outputs":[{"name":"","type":"uint256[]","internalType":"uint256[]"}],"stateMutability":"view"},{"type":"function","name":"getStakeRequirement","inputs":[{"name":"cp","type":"address","internalType":"address"}],"outputs":[{"name":"","type":"uint256","internalType":"uint256"}],"stateMutability":"view"},{"type":"function","name":"initialize","inputs":[{"name":"_nodeEscrow","type":"address","internalType":"address"},{"name":"_whitelistManager","type":"address","internalType":"address"},{"name":"_accessManager","type":"address","internalType":"address"}],"outputs":[],"stateMutability":"nonpayable"},{"type":"function","name":"registerNode","inputs":[{"name":"computeRating","type":"uint256","internalType":"uint256"}],"outputs":[{"name":"","type":"uint256","internalType":"uint256"}],"stateMutability":"nonpayable"},{"type":"function","name":"unregisterNode","inputs":[{"name":"nodeId","type":"uint256","internalType":"uint256"}],"outputs":[],"stateMutability":"nonpayable"},{"type":"function","name":"validateNodeOwner","inputs":[{"name":"nodeId","type":"uint256","internalType":"uint256"},{"name":"sender","type":"address","internalType":"address"}],"outputs":[],"stateMutability":"view"},{"type":"event","name":"Initialized","inputs":[{"name":"version","type":"uint64","indexed":false,"internalType":"uint64"}],"anonymous":false},{"type":"event","name":"NodeRegistered","inputs":[{"name":"cp","type":"address","indexed":true,"internalType":"address"},{"name":"nodeId","type":"uint256","indexed":false,"internalType":"uint256"},{"name":"computeRating","type":"uint256","indexed":false,"internalType":"uint256"}],"anonymous":false},{"type":"event","name":"NodeUnregistered","inputs":[{"name":"cp","type":"address","indexed":true,"internalType":"address"},{"name":"nodeId","type":"uint256","indexed":false,"internalType":"uint256"}],"anonymous":false},{"type":"event","name":"NodeUpdated","inputs":[{"name":"nodeId","type":"uint256","indexed":true,"internalType":"uint256"},{"name":"newComputeRating","type":"uint256","indexed":false,"internalType":"uint256"}],"anonymous":false},{"type":"event","name":"StakeRequirementUpdated","inputs":[{"name":"cp","type":"address","indexed":true,"internalType":"address"},{"name":"newRequirement","type":"uint256","indexed":false,"internalType":"uint256"}],"anonymous":false},{"type":"event","name":"StakeValidated","inputs":[{"name":"cp","type":"address","indexed":true,"internalType":"address"},{"name":"computeRating","type":"uint256","indexed":false,"internalType":"uint256"},{"name":"isValid","type":"bool","indexed":false,"internalType":"bool"}],"anonymous":false},{"type":"error","name":"InsufficientStake","inputs":[{"name":"cp","type":"address","internalType":"address"},{"name":"computeRating","type":"uint256","internalType":"uint256"}]},{"type":"error","name":"InvalidInitialization","inputs":[]},{"type":"error","name":"InvalidNodeOwner","inputs":[{"name":"nodeId","type":"uint256","internalType":"uint256"},{"name":"sender","type":"address","internalType":"address"}]},{"type":"error","name":"NodeNotActive","inputs":[{"name":"nodeId","type":"uint256","internalType":"uint256"}]},{"type":"error","name":"NodeNotFound","inputs":[{"name":"nodeId","type":"uint256","internalType":"uint256"}]},{"type":"error","name":"NotInitializing","inputs":[]}],"bytecode":{"object":"0x6080604052348015600e575f5ffd5b50610c4c8061001c5f395ff3fe608060405234801561000f575f5ffd5b5060043610610090575f3560e01c806388fc08251161006357806388fc08251461014b578063a810885814610160578063c0c53b8b14610173578063ce8f467514610186578063e60154311461019b575f5ffd5b806353e215f4146100945780635d3c373f146100d75780636cac3f46146101025780637f980edf14610138575b5f5ffd5b6100a76100a2366004610a72565b6101ae565b6040805182516001600160a01b031681526020808401519082015291810151908201526060015b60405180910390f35b6100ea6100e5366004610a72565b610242565b6040516001600160a01b0390911681526020016100ce565b61012a610110366004610aa4565b6001600160a01b03165f9081526006602052604090205490565b6040519081526020016100ce565b61012a610146366004610a72565b6102a9565b61015e610159366004610a72565b61053f565b005b61015e61016e366004610ac4565b61072c565b61015e610181366004610aee565b6107d7565b61018e61091a565b6040516100ce9190610b2e565b61018e6101a9366004610a72565b610970565b6101d860405180606001604052805f6001600160a01b031681526020015f81526020015f81525090565b5f828152600460209081526040808320815160608101835281546001600160a01b03168152600182015493810184905260029091015491810191909152910361023c5760405163ed62d22960e01b8152600481018490526024015b60405180910390fd5b92915050565b5f818152600460209081526040808320815160608101835281546001600160a01b031681526001820154938101849052600290910154918101919091529082036102a25760405163ed62d22960e01b815260048101849052602401610233565b5192915050565b600154604051633b594fbd60e21b81523360048201525f916001600160a01b03169063ed653ef4906024015f6040518083038186803b1580156102ea575f5ffd5b505afa1580156102fc573d5f5f3e3d5ffd5b505050505f678ac7230489e80000836103159190610b84565b5f54604051631bf074f360e11b8152336004820152602481018390529192506001600160a01b0316906337e0e9e6906044015f6040518083038186803b15801561035d575f5ffd5b505afa15801561036f573d5f5f3e3d5ffd5b505060038054925090505f61038383610b9b565b9091555050600354604080516060810182523380825260208083018581528385018981525f87815260048452868120955186546001600160a01b0319166001600160a01b039091161786559151600180870191909155905160029095019490945582815260058252848120805480860182559082528282200186905588815260078252848120805494850181558152818120909301859055908252600690529081208054849290610435908490610bb3565b90915550505f8481526009602052604090205460ff1661049c575f848152600960205260408120805460ff19166001908117909155600a805491820181559091527fc65a7bb8d6351c1cf70c95a316cc6a92839c986682d98bc35f958f4883f9d2a8018490555b5f8481526008602052604081208054916104b583610b9b565b9091555050604080518281526020810186905233917f99140a41575033d78b1016979e49f1b8a4943ef274d75edf0dac1bc3ccbce5f7910160405180910390a2335f818152600660209081526040918290205491519182527f5183a6001813d609ebff44e013e18b2fa6a14683d88795671015806f034fd723910160405180910390a29392505050565b610549813361072c565b5f818152600460209081526040808320815160608101835281546001600160a01b0316815260018201549381018490526002909101549181019190915291036105a85760405163ed62d22960e01b815260048101839052602401610233565b335f9081526005602052604090206105c090836109cf565b6040808201515f9081526007602052206105da90836109cf565b5f678ac7230489e8000082604001516105f39190610b84565b335f90815260066020526040812080549293508392909190610616908490610bc6565b90915550506040808301515f908152600860205290812080549161063983610bd9565b90915550506040808301515f908152600860205290812054900361068057604080830180515f908152600960205291909120805460ff191690555161068090600a906109cf565b5f8381526004602052604080822080546001600160a01b031916815560018101839055600201919091555133907f89fe2dcb99a13aaafb7aeb63dac59e2691eb76a7f5ddae6cb6719e066ee5de17906106dc9086815260200190565b60405180910390a2335f818152600660209081526040918290205491519182527f5183a6001813d609ebff44e013e18b2fa6a14683d88795671015806f034fd723910160405180910390a2505050565b5f828152600460209081526040808320815160608101835281546001600160a01b03168152600182015493810184905260029091015491810191909152910361078b5760405163ed62d22960e01b815260048101849052602401610233565b816001600160a01b0316815f01516001600160a01b0316146107d257604051630667dccf60e21b8152600481018490526001600160a01b0383166024820152604401610233565b505050565b7ff0c57e16840df040f15088dc2f81fe391c3923bec73e23a9662efc9c229c6a008054600160401b810460ff16159067ffffffffffffffff165f8115801561081c5750825b90505f8267ffffffffffffffff1660011480156108385750303b155b905081158015610846575080155b156108645760405163f92ee8a960e01b815260040160405180910390fd5b845467ffffffffffffffff19166001178555831561088e57845460ff60401b1916600160401b1785555b5f80546001600160a01b03808b166001600160a01b031992831617909255600180548a84169083161790556002805492891692909116919091179055831561091057845460ff60401b19168555604051600181527fc7f505b2f371ae2175ee4913f4499e1f2633a7b5936321eed1cdaeb6115181d29060200160405180910390a15b5050505050505050565b6060600a80548060200260200160405190810160405280929190818152602001828054801561096657602002820191905f5260205f20905b815481526020019060010190808311610952575b5050505050905090565b5f818152600760209081526040918290208054835181840281018401909452808452606093928301828280156109c357602002820191905f5260205f20905b8154815260200190600101908083116109af575b50505050509050919050565b5f5b82548110156107d257818382815481106109ed576109ed610bee565b905f5260205f20015403610a6a5782548390610a0b90600190610bc6565b81548110610a1b57610a1b610bee565b905f5260205f200154838281548110610a3657610a36610bee565b905f5260205f20018190555082805480610a5257610a52610c02565b600190038181905f5260205f20015f90559055505050565b6001016109d1565b5f60208284031215610a82575f5ffd5b5035919050565b80356001600160a01b0381168114610a9f575f5ffd5b919050565b5f60208284031215610ab4575f5ffd5b610abd82610a89565b9392505050565b5f5f60408385031215610ad5575f5ffd5b82359150610ae560208401610a89565b90509250929050565b5f5f5f60608486031215610b00575f5ffd5b610b0984610a89565b9250610b1760208501610a89565b9150610b2560408501610a89565b90509250925092565b602080825282518282018190525f918401906040840190835b81811015610b65578351835260209384019390920191600101610b47565b509095945050505050565b634e487b7160e01b5f52601160045260245ffd5b808202811582820484141761023c5761023c610b70565b5f60018201610bac57610bac610b70565b5060010190565b8082018082111561023c5761023c610b70565b8181038181111561023c5761023c610b70565b5f81610be757610be7610b70565b505f190190565b634e487b7160e01b5f52603260045260245ffd5b634e487b7160e01b5f52603160045260245ffdfea2646970667358221220523688e272aac1eb85be1a796e59d0db2c2d66cdb8c90dc41b74ab036e9530fd64736f6c634300081c0033","linkReferences":{}},"methodIdentifiers":{"getAllComputePools()":"ce8f4675","getNodeInfo(uint256)":"53e215f4","getNodeOwner(uint256)":"5d3c373f","getNodesInPool(uint256)":"e6015431","getStakeRequirement(address)":"6cac3f46","initialize(address,address,address)":"c0c53b8b","registerNode(uint256)":"7f980edf","unregisterNode(uint256)":"88fc0825","validateNodeOwner(uint256,address)":"a8108858"},"id":43}