{"abi":[{"type":"function","name":"applyPenalty","inputs":[{"name":"cp","type":"address","internalType":"address"},{"name":"amount","type":"uint256","internalType":"uint256"},{"name":"reason","type":"string","internalType":"string"}],"outputs":[],"stateMutability":"nonpayable"},{"type":"function","name":"applyReward","inputs":[{"name":"cp","type":"address","internalType":"address"},{"name":"amount","type":"uint256","internalType":"uint256"},{"name":"reason","type":"string","internalType":"string"}],"outputs":[],"stateMutability":"nonpayable"},{"type":"function","name":"applySlash","inputs":[{"name":"cp","type":"address","internalType":"address"},{"name":"reason","type":"string","internalType":"string"}],"outputs":[],"stateMutability":"nonpayable"},{"type":"function","name":"cancelWithdraw","inputs":[],"outputs":[],"stateMutability":"nonpayable"},{"type":"function","name":"deposit","inputs":[{"name":"amount","type":"uint256","internalType":"uint256"}],"outputs":[],"stateMutability":"nonpayable"},{"type":"function","name":"getBalance","inputs":[{"name":"user","type":"address","internalType":"address"}],"outputs":[{"name":"","type":"uint256","internalType":"uint256"}],"stateMutability":"view"},{"type":"function","name":"initialize","inputs":[{"name":"_accessManager","type":"address","internalType":"address"},{"name":"_token","type":"address","internalType":"address"}],"outputs":[],"stateMutability":"nonpayable"},{"type":"function","name":"requestWithdraw","inputs":[{"name":"amount","type":"uint256","internalType":"uint256"}],"outputs":[],"stateMutability":"nonpayable"},{"type":"function","name":"requireBalance","inputs":[{"name":"user","type":"address","internalType":"address"},{"name":"amount","type":"uint256","internalType":"uint256"}],"outputs":[],"stateMutability":"view"},{"type":"function","name":"withdraw","inputs":[],"outputs":[],"stateMutability":"nonpayable"},{"type":"event","name":"Deposited","inputs":[{"name":"user","type":"address","indexed":true,"internalType":"address"},{"name":"amount","type":"uint256","indexed":false,"internalType":"uint256"},{"name":"newBalance","type":"uint256","indexed":false,"internalType":"uint256"},{"name":"escrowName","type":"string","indexed":false,"internalType":"string"}],"anonymous":false},{"type":"event","name":"Initialized","inputs":[{"name":"version","type":"uint64","indexed":false,"internalType":"uint64"}],"anonymous":false},{"type":"event","name":"PenaltyApplied","inputs":[{"name":"cp","type":"address","indexed":true,"internalType":"address"},{"name":"amount","type":"uint256","indexed":false,"internalType":"uint256"},{"name":"newBalance","type":"uint256","indexed":false,"internalType":"uint256"},{"name":"reason","type":"string","indexed":false,"internalType":"string"}],"anonymous":false},{"type":"event","name":"RewardApplied","inputs":[{"name":"cp","type":"address","indexed":true,"internalType":"address"},{"name":"amount","type":"uint256","indexed":false,"internalType":"uint256"},{"name":"newBalance","type":"uint256","indexed":false,"internalType":"uint256"},{"name":"reason","type":"string","indexed":false,"internalType":"string"}],"anonymous":false},{"type":"event","name":"SlashApplied","inputs":[{"name":"cp","type":"address","indexed":true,"internalType":"address"},{"name":"newBalance","type":"uint256","indexed":false,"internalType":"uint256"},{"name":"reason","type":"string","indexed":false,"internalType":"string"}],"anonymous":false},{"type":"event","name":"WithdrawCancelled","inputs":[{"name":"user","type":"address","indexed":true,"internalType":"address"},{"name":"amount","type":"uint256","indexed":false,"internalType":"uint256"},{"name":"escrowName","type":"string","indexed":false,"internalType":"string"}],"anonymous":false},{"type":"event","name":"WithdrawRequested","inputs":[{"name":"user","type":"address","indexed":true,"internalType":"address"},{"name":"amount","type":"uint256","indexed":false,"internalType":"uint256"},{"name":"unlockTime","type":"uint256","indexed":false,"internalType":"uint256"},{"name":"escrowName","type":"string","indexed":false,"internalType":"string"}],"anonymous":false},{"type":"event","name":"Withdrawn","inputs":[{"name":"user","type":"address","indexed":true,"internalType":"address"},{"name":"amount","type":"uint256","indexed":false,"internalType":"uint256"},{"name":"remainingBalance","type":"uint256","indexed":false,"internalType":"uint256"},{"name":"escrowName","type":"string","indexed":false,"internalType":"string"}],"anonymous":false},{"type":"error","name":"BelowMinimumDeposit","inputs":[{"name":"provided","type":"uint256","internalType":"uint256"},{"name":"minimum","type":"uint256","internalType":"uint256"}]},{"type":"error","name":"ExistingWithdrawRequest","inputs":[{"name":"user","type":"address","internalType":"address"}]},{"type":"error","name":"InsufficientBalance","inputs":[{"name":"user","type":"address","internalType":"address"},{"name":"requested","type":"uint256","internalType":"uint256"},{"name":"available","type":"uint256","internalType":"uint256"}]},{"type":"error","name":"InsufficientContractBalance","inputs":[{"name":"requested","type":"uint256","internalType":"uint256"},{"name":"available","type":"uint256","internalType":"uint256"}]},{"type":"error","name":"InvalidInitialization","inputs":[]},{"type":"error","name":"LockPeriodActive","inputs":[{"name":"user","type":"address","internalType":"address"},{"name":"remainingTime","type":"uint256","internalType":"uint256"}]},{"type":"error","name":"NoWithdrawRequest","inputs":[{"name":"user","type":"address","internalType":"address"}]},{"type":"error","name":"NotInitializing","inputs":[]},{"type":"error","name":"SlashedCP","inputs":[{"name":"cp","type":"address","internalType":"address"}]},{"type":"error","name":"TransferFailed","inputs":[]}],"bytecode":{"object":"0x6080604052348015600e575f5ffd5b5061121b8061001c5f395ff3fe608060405234801561000f575f5ffd5b506004361061009b575f3560e01c80637c6deb62116100635780637c6deb62146100f557806384b7682414610108578063b6b55f2514610110578063c274326d14610123578063f8b2cb4f14610136575f5ffd5b806337e0e9e61461009f5780633ccfd60b146100b4578063485cc955146100bc578063563060fd146100cf578063745400c9146100e2575b5f5ffd5b6100b26100ad366004610d30565b610170565b005b6100b26101da565b6100b26100ca366004610d58565b6104ec565b6100b26100dd366004610dce565b6105fc565b6100b26100f0366004610e24565b610720565b6100b2610103366004610e3b565b61083e565b6100b2610920565b6100b261011e366004610e24565b6109b9565b6100b2610131366004610dce565b610afd565b61015e610144366004610e8a565b6001600160a01b03165f9081526003602052604090205490565b60405190815260200160405180910390f35b6001600160a01b0382165f908152600360205260409020548111156101d6576001600160a01b0382165f818152600360205260409081902054905163db42144d60e01b815260048101929092526024820183905260448201526064015b60405180910390fd5b5050565b335f908152600460205260409020600281015460ff1661020f57604051636d50aab560e11b81523360048201526024016101cd565b6201518081600101546102229190610ebe565b42101561027257334262015180836001015461023e9190610ebe565b6102489190610ed7565b604051638db6b2f360e01b81526001600160a01b03909216600483015260248201526044016101cd565b8054335f908152600360205260409020548111156102c357335f818152600360205260409081902054905163db42144d60e01b815260048101929092526024820183905260448201526064016101cd565b6001546040516370a0823160e01b815230600482015282916001600160a01b0316906370a0823190602401602060405180830381865afa158015610309573d5f5f3e3d5ffd5b505050506040513d601f19601f8201168201806040525081019061032d9190610eea565b10156103bf576001546040516370a0823160e01b815230600482015282916001600160a01b0316906370a0823190602401602060405180830381865afa158015610379573d5f5f3e3d5ffd5b505050506040513d601f19601f8201168201806040525081019061039d9190610eea565b60405163b7ddd88b60e01b8152600481019290925260248201526044016101cd565b335f90815260036020526040812080548392906103dd908490610ed7565b9091555050335f81815260046020819052604080832083815560018082018590556002909101805460ff1916905554905163a9059cbb60e01b8152918201939093526024810184905290916001600160a01b03169063a9059cbb906044016020604051808303815f875af1158015610457573d5f5f3e3d5ffd5b505050506040513d601f19601f8201168201806040525081019061047b9190610f01565b90508061049b576040516312171d8360e31b815260040160405180910390fd5b335f81815260036020526040908190205490517f62116a798bb58cc967874bea4d771de2f9aeec6c64189ff2e5a551072f3106f9916104df91869190600290610fd7565b60405180910390a2505050565b7ff0c57e16840df040f15088dc2f81fe391c3923bec73e23a9662efc9c229c6a008054600160401b810460ff16159067ffffffffffffffff165f811580156105315750825b90505f8267ffffffffffffffff16600114801561054d5750303b155b90508115801561055b575080155b156105795760405163f92ee8a960e01b815260040160405180910390fd5b845467ffffffffffffffff1916600117855583156105a357845460ff60401b1916600160401b1785555b6105ad8787610c2d565b83156105f357845460ff60401b19168555604051600181527fc7f505b2f371ae2175ee4913f4499e1f2633a7b5936321eed1cdaeb6115181d29060200160405180910390a15b50505050505050565b5f5460405163d09a20c560e01b81527f9253af9d8282c03c44bbb1e9529141344c782647a2f67ba24c8954db1de58ca960048201523360248201526001600160a01b039091169063d09a20c5906044015f6040518083038186803b158015610662575f5ffd5b505afa158015610674573d5f5f3e3d5ffd5b505050506001600160a01b0384165f9081526005602052604090205460ff1661071a576001600160a01b0384165f90815260036020526040812080548592906106be908490610ebe565b90915550506001600160a01b0384165f81815260036020526040908190205490517ffeecc467d94e4763f13bedb4af4262c349558e2cc1dd7a3d247744d757be2296916107119187919087908790611026565b60405180910390a25b50505050565b335f9081526003602052604090205481111561076f57335f818152600360205260409081902054905163db42144d60e01b815260048101929092526024820183905260448201526064016101cd565b335f9081526004602052604090206002015460ff16156107a45760405163ede3885b60e01b81523360048201526024016101cd565b604080516060810182528281524260208083018281526001848601818152335f81815260049095529690932094518555905190840155516002909201805460ff1916921515929092179091557f0aed8180bd84f93fd8a307d9c534f2081366c2231daec597d51911c89fdae2a6908390610822906201518090610ebe565b600260405161083393929190610fd7565b60405180910390a250565b5f5460405163d09a20c560e01b81527f9253af9d8282c03c44bbb1e9529141344c782647a2f67ba24c8954db1de58ca960048201523360248201526001600160a01b039091169063d09a20c5906044015f6040518083038186803b1580156108a4575f5ffd5b505afa1580156108b6573d5f5f3e3d5ffd5b505050506001600160a01b0383165f8181526003602081815260408084208481556005835293819020805460ff19166001179055919052905490517f634baef6bea31d4994dfe48e272e1ca9bfa8102d2986b8e92d34063fdaaa5da3916104df918690869061104f565b335f908152600460205260409020600281015460ff1661095557604051636d50aab560e11b81523360048201526024016101cd565b8054335f8181526004602052604080822082815560018101929092556002918201805460ff19169055517f9158b360183815903442a8fb9a892fd2e428a1a0736f0a6eeaf7b3a9ce222416916109ad91859190611068565b60405180910390a25050565b6801158e460913d000008110156109f557604051631e2be21160e01b8152600481018290526801158e460913d0000060248201526044016101cd565b6109fd610c98565b6001546040516323b872dd60e01b8152336004820152306024820152604481018390526001600160a01b03909116906323b872dd906064016020604051808303815f875af1158015610a51573d5f5f3e3d5ffd5b505050506040513d601f19601f82011682018060405250810190610a759190610f01565b50335f9081526003602052604081208054839290610a94908490610ebe565b9091555050335f818152600360205260409020547fa6f472afe6167674a3b4324e83eb63d201d75a960d8a52bf808fea91f960f117908390610aee6040805180820190915260058152647374616b6560d81b602082015290565b60405161083393929190611088565b5f5460405163d09a20c560e01b81527f9253af9d8282c03c44bbb1e9529141344c782647a2f67ba24c8954db1de58ca960048201523360248201526001600160a01b039091169063d09a20c5906044015f6040518083038186803b158015610b63575f5ffd5b505afa158015610b75573d5f5f3e3d5ffd5b505050506001600160a01b0384165f90815260036020526040902054831115610bb3576001600160a01b0384165f9081526003602052604090205492505b6001600160a01b0384165f9081526003602052604081208054859290610bda908490610ed7565b90915550506001600160a01b0384165f81815260036020526040908190205490517ff4e7fd332f1c61a1e61cb94453fa3c94b603ae48aea4c5929afaca6fa5389849916107119187919087908790611026565b610c35610ccc565b5f80546001600160a01b038085166001600160a01b0319928316179092556001805492841692909116919091179055610c866040805180820190915260058152647374616b6560d81b602082015290565b600290610c93908261112a565b505050565b335f9081526005602052604090205460ff1615610cca576040516315040dcd60e21b81523360048201526024016101cd565b565b7ff0c57e16840df040f15088dc2f81fe391c3923bec73e23a9662efc9c229c6a0054600160401b900460ff16610cca57604051631afcd79f60e31b815260040160405180910390fd5b80356001600160a01b0381168114610d2b575f5ffd5b919050565b5f5f60408385031215610d41575f5ffd5b610d4a83610d15565b946020939093013593505050565b5f5f60408385031215610d69575f5ffd5b610d7283610d15565b9150610d8060208401610d15565b90509250929050565b5f5f83601f840112610d99575f5ffd5b50813567ffffffffffffffff811115610db0575f5ffd5b602083019150836020828501011115610dc7575f5ffd5b9250929050565b5f5f5f5f60608587031215610de1575f5ffd5b610dea85610d15565b935060208501359250604085013567ffffffffffffffff811115610e0c575f5ffd5b610e1887828801610d89565b95989497509550505050565b5f60208284031215610e34575f5ffd5b5035919050565b5f5f5f60408486031215610e4d575f5ffd5b610e5684610d15565b9250602084013567ffffffffffffffff811115610e71575f5ffd5b610e7d86828701610d89565b9497909650939450505050565b5f60208284031215610e9a575f5ffd5b610ea382610d15565b9392505050565b634e487b7160e01b5f52601160045260245ffd5b80820180821115610ed157610ed1610eaa565b92915050565b81810381811115610ed157610ed1610eaa565b5f60208284031215610efa575f5ffd5b5051919050565b5f60208284031215610f11575f5ffd5b81518015158114610ea3575f5ffd5b600181811c90821680610f3457607f821691505b602082108103610f5257634e487b7160e01b5f52602260045260245ffd5b50919050565b5f8154610f6481610f20565b808552600182168015610f7e5760018114610f9a57610fce565b60ff1983166020870152602082151560051b8701019350610fce565b845f5260205f205f5b83811015610fc55781546020828a010152600182019150602081019050610fa3565b87016020019450505b50505092915050565b838152826020820152606060408201525f610ff56060830184610f58565b95945050505050565b81835281816020850137505f828201602090810191909152601f909101601f19169091010190565b848152836020820152606060408201525f611045606083018486610ffe565b9695505050505050565b838152604060208201525f610ff5604083018486610ffe565b828152604060208201525f6110806040830184610f58565b949350505050565b838152826020820152606060408201525f82518060608401528060208501608085015e5f608082850101526080601f19601f830116840101915050949350505050565b634e487b7160e01b5f52604160045260245ffd5b601f821115610c9357805f5260205f20601f840160051c810160208510156111045750805b601f840160051c820191505b81811015611123575f8155600101611110565b5050505050565b815167ffffffffffffffff811115611144576111446110cb565b611158816111528454610f20565b846110df565b6020601f82116001811461118a575f83156111735750848201515b5f19600385901b1c1916600184901b178455611123565b5f84815260208120601f198516915b828110156111b95787850151825560209485019460019092019101611199565b50848210156111d657868401515f19600387901b60f8161c191681555b50505050600190811b0190555056fea264697066735822122080895cc903828f7e6053801c39e9f3c244bcdd419206ab390171f94a8fc7679b64736f6c634300081c0033","linkReferences":{}},"methodIdentifiers":{"applyPenalty(address,uint256,string)":"c274326d","applyReward(address,uint256,string)":"563060fd","applySlash(address,string)":"7c6deb62","cancelWithdraw()":"84b76824","deposit(uint256)":"b6b55f25","getBalance(address)":"f8b2cb4f","initialize(address,address)":"485cc955","requestWithdraw(uint256)":"745400c9","requireBalance(address,uint256)":"37e0e9e6","withdraw()":"3ccfd60b"},"id":42}