{"abi":[{"type":"function","name":"initialize","inputs":[{"name":"_epochManager","type":"address","internalType":"address"},{"name":"_leaderManager","type":"address","internalType":"address"},{"name":"_jobManager","type":"address","internalType":"address"},{"name":"_nodeManager","type":"address","internalType":"address"},{"name":"_stakeEscrow","type":"address","internalType":"address"}],"outputs":[],"stateMutability":"nonpayable"},{"type":"function","name":"penaltyCount","inputs":[{"name":"","type":"address","internalType":"address"}],"outputs":[{"name":"","type":"uint256","internalType":"uint256"}],"stateMutability":"view"},{"type":"function","name":"processAll","inputs":[],"outputs":[],"stateMutability":"nonpayable"},{"type":"function","name":"processedEpochs","inputs":[{"name":"","type":"uint256","internalType":"uint256"}],"outputs":[{"name":"","type":"bool","internalType":"bool"}],"stateMutability":"view"},{"type":"event","name":"DisputerRewardApplied","inputs":[{"name":"epoch","type":"uint256","indexed":true,"internalType":"uint256"},{"name":"cp","type":"address","indexed":false,"internalType":"address"},{"name":"amount","type":"uint256","indexed":false,"internalType":"uint256"}],"anonymous":false},{"type":"event","name":"Initialized","inputs":[{"name":"version","type":"uint64","indexed":false,"internalType":"uint64"}],"anonymous":false},{"type":"event","name":"JobAvailabilityRewardApplied","inputs":[{"name":"epoch","type":"uint256","indexed":true,"internalType":"uint256"},{"name":"nodeId","type":"uint256","indexed":true,"internalType":"uint256"},{"name":"amount","type":"uint256","indexed":false,"internalType":"uint256"}],"anonymous":false},{"type":"event","name":"JobNotConfirmedPenaltyApplied","inputs":[{"name":"epoch","type":"uint256","indexed":true,"internalType":"uint256"},{"name":"job","type":"uint256","indexed":true,"internalType":"uint256"},{"name":"amount","type":"uint256","indexed":false,"internalType":"uint256"}],"anonymous":false},{"type":"event","name":"LeaderNotExecutedPenaltyApplied","inputs":[{"name":"epoch","type":"uint256","indexed":true,"internalType":"uint256"},{"name":"cp","type":"address","indexed":false,"internalType":"address"},{"name":"amount","type":"uint256","indexed":false,"internalType":"uint256"}],"anonymous":false},{"type":"event","name":"LeaderRewardApplied","inputs":[{"name":"epoch","type":"uint256","indexed":true,"internalType":"uint256"},{"name":"cp","type":"address","indexed":false,"internalType":"address"},{"name":"amount","type":"uint256","indexed":false,"internalType":"uint256"}],"anonymous":false},{"type":"error","name":"InvalidInitialization","inputs":[]},{"type":"error","name":"NotInitializing","inputs":[]}],"bytecode":{"object":"0x6080604052348015600e575f5ffd5b506111c68061001c5f395ff3fe608060405234801561000f575f5ffd5b506004361061004a575f3560e01c80631459457a1461004e57806335d1193c146100635780634dfe19dd1461006b578063a9330b0e146100a2575b5f5ffd5b61006161005c366004610f41565b6100cf565b005b61006161022d565b61008d610079366004610fae565b60066020525f908152604090205460ff1681565b60405190151581526020015b60405180910390f35b6100c16100b0366004610fc5565b60056020525f908152604090205481565b604051908152602001610099565b7ff0c57e16840df040f15088dc2f81fe391c3923bec73e23a9662efc9c229c6a008054600160401b810460ff16159067ffffffffffffffff165f811580156101145750825b90505f8267ffffffffffffffff1660011480156101305750303b155b90508115801561013e575080155b1561015c5760405163f92ee8a960e01b815260040160405180910390fd5b845467ffffffffffffffff19166001178555831561018657845460ff60401b1916600160401b1785555b5f80546001600160a01b03199081166001600160a01b038d8116919091179092556001805482168c84161790556002805482168b84161790556003805482168a841617905560048054909116918816919091179055831561022157845460ff60401b19168555604051600181527fc7f505b2f371ae2175ee4913f4499e1f2633a7b5936321eed1cdaeb6115181d29060200160405180910390a15b50505050505050505050565b5f5f5f9054906101000a90046001600160a01b03166001600160a01b031663b97dd9e26040518163ffffffff1660e01b8152600401602060405180830381865afa15801561027d573d5f5f3e3d5ffd5b505050506040513d601f19601f820116820180604052508101906102a19190610fe7565b90505f6102ad826102cb565b905080156102c7576102be82610307565b6102c782610859565b5050565b5f8181526006602052604081205460ff16156102e857505f919050565b505f908152600660205260409020805460ff1916600190811790915590565b60035460015460405163a218b75760e01b8152600481018490525f926001600160a01b0390811692635d3c373f9291169063a218b75790602401602060405180830381865afa15801561035c573d5f5f3e3d5ffd5b505050506040513d601f19601f820116820180604052508101906103809190610fe7565b6040518263ffffffff1660e01b815260040161039e91815260200190565b602060405180830381865afa1580156103b9573d5f5f3e3d5ffd5b505050506040513d601f19601f820116820180604052508101906103dd9190610ffe565b6002546040516368d23f0160e01b8152600481018590529192506001600160a01b0316906368d23f0190602401602060405180830381865afa158015610425573d5f5f3e3d5ffd5b505050506040513d601f19601f820116820180604052508101906104499190611019565b61058e576004805460405163c274326d60e01b81526001600160a01b038481169382019390935267d02ab486cedc0000602482015260606044820152602160648201527f4c6561646572206469646e277420657865637574652061737369676e6d656e746084820152607360f81b60a482015291169063c274326d9060c4015f604051808303815f87803b1580156104df575f5ffd5b505af11580156104f1573d5f5f3e3d5ffd5b505050506104fe81610e80565b1561054257610542816040518060400160405280601a81526020017f4578636565646564206d6178696d756d2070656e616c74696573000000000000815250610ec8565b604080516001600160a01b038316815267d02ab486cedc0000602082015283917fa6c48824036d5c4355a948a91850cfb549eaa4467af594471acc2124869e2e34910160405180910390a25b600254604051632fd68d4760e01b8152600481018490525f916001600160a01b031690632fd68d47906024015f60405180830381865afa1580156105d4573d5f5f3e3d5ffd5b505050506040513d5f823e601f3d908101601f191682016040526105fb919081019061104c565b90505f5b81518110156108535760035460025483515f926001600160a01b0390811692635d3c373f929116906312a9d99a9087908790811061063f5761063f611114565b60200260200101516040518263ffffffff1660e01b815260040161066591815260200190565b602060405180830381865afa158015610680573d5f5f3e3d5ffd5b505050506040513d601f19601f820116820180604052508101906106a49190610fe7565b6040518263ffffffff1660e01b81526004016106c291815260200190565b602060405180830381865afa1580156106dd573d5f5f3e3d5ffd5b505050506040513d601f19601f820116820180604052508101906107019190610ffe565b6004805460405163c274326d60e01b81526001600160a01b0380851693820193909352678ac7230489e80000602482015260606044820152601760648201527f4e6f6465206469646e277420636f6e6669726d206a6f620000000000000000006084820152929350169063c274326d9060a4015f604051808303815f87803b15801561078b575f5ffd5b505af115801561079d573d5f5f3e3d5ffd5b505050506107aa81610e80565b156107ee576107ee816040518060400160405280601a81526020017f4578636565646564206d6178696d756d2070656e616c74696573000000000000815250610ec8565b82828151811061080057610800611114565b6020026020010151857fa7472e30a283d6f8818eba898c543bae9fdb0ba1558e2b0ae686883902400803678ac7230489e8000060405161084291815260200190565b60405180910390a3506001016105ff565b50505050565b60035460015460405163a218b75760e01b8152600481018490525f926001600160a01b0390811692635d3c373f9291169063a218b75790602401602060405180830381865afa1580156108ae573d5f5f3e3d5ffd5b505050506040513d601f19601f820116820180604052508101906108d29190610fe7565b6040518263ffffffff1660e01b81526004016108f091815260200190565b602060405180830381865afa15801561090b573d5f5f3e3d5ffd5b505050506040513d601f19601f8201168201806040525081019061092f9190610ffe565b5f8381526008602052604090205490915060ff161580156109b657506002546040516368d23f0160e01b8152600481018490526001600160a01b03909116906368d23f0190602401602060405180830381865afa158015610992573d5f5f3e3d5ffd5b505050506040513d601f19601f820116820180604052508101906109b69190611019565b15610ad5576004805460405163563060fd60e01b81526001600160a01b0384811693820193909352674563918244f40000602482015260606044820152602260648201527f4c65616465722061737369676e6d656e7420726f756e6420636f6d706c65746960848201526137b760f11b60a482015291169063563060fd9060c4015f604051808303815f87803b158015610a4e575f5ffd5b505af1158015610a60573d5f5f3e3d5ffd5b5050505f8381526008602052604090819020805460ff19166001179055518391507f6c42bf93bf56a1dcf07a895f4417343b4ef68e9174e664ccb795698b67067a7890610acc908490674563918244f40000906001600160a01b03929092168252602082015260400190565b60405180910390a25b60015460405163d372b84760e01b8152600481018490525f916001600160a01b03169063d372b847906024015f60405180830381865afa158015610b1b573d5f5f3e3d5ffd5b505050506040513d5f823e601f3d908101601f19168201604052610b42919081019061104c565b90505f5b8151811015610d795760075f8581526020019081526020015f205f838381518110610b7357610b73611114565b60209081029190910181015182528101919091526040015f205460ff16610d715760035482515f916001600160a01b031690635d3c373f90859085908110610bbd57610bbd611114565b60200260200101516040518263ffffffff1660e01b8152600401610be391815260200190565b602060405180830381865afa158015610bfe573d5f5f3e3d5ffd5b505050506040513d601f19601f82011682018060405250810190610c229190610ffe565b6004805460405163563060fd60e01b81526001600160a01b0380851693820193909352670de0b6b3a7640000602482015260606044820152601760648201527f4a6f6220617661696c6162696c697479207265776172640000000000000000006084820152929350169063563060fd9060a4015f604051808303815f87803b158015610cac575f5ffd5b505af1158015610cbe573d5f5f3e3d5ffd5b50505050600160075f8781526020019081526020015f205f858581518110610ce857610ce8611114565b602002602001015181526020019081526020015f205f6101000a81548160ff021916908315150217905550828281518110610d2557610d25611114565b6020026020010151857f6ef2adbc2dc4dfa172ae7921086ca8a33e8aa99dce3bdc6d9ac4f44f781abe57670de0b6b3a7640000604051610d6791815260200190565b60405180910390a3505b600101610b46565b505f8381526009602052604090205460ff16610e7b576004805460405163563060fd60e01b815233928101929092526706f05b59d3b20000602483015260606044830152600f60648301526e111a5cdc1d5d195c881c995dd85c99608a1b60848301526001600160a01b03169063563060fd9060a4015f604051808303815f87803b158015610e06575f5ffd5b505af1158015610e18573d5f5f3e3d5ffd5b5050505f84815260096020908152604091829020805460ff1916600117905581513381526706f05b59d3b20000918101919091528592507f9a5ecb09dc5eb511eba062bdb224dd61279c849f29ba6a52371cdb7822fc0edf910160405180910390a25b505050565b6001600160a01b0381165f90815260056020526040812080549082610ea483611128565b9091555050506001600160a01b03165f90815260056020526040902054600a111590565b60048054604051633e36f5b160e11b81526001600160a01b0390911691637c6deb6291610ef991869186910161114c565b5f604051808303815f87803b158015610f10575f5ffd5b505af1158015610f22573d5f5f3e3d5ffd5b505050505050565b6001600160a01b0381168114610f3e575f5ffd5b50565b5f5f5f5f5f60a08688031215610f55575f5ffd5b8535610f6081610f2a565b94506020860135610f7081610f2a565b93506040860135610f8081610f2a565b92506060860135610f9081610f2a565b91506080860135610fa081610f2a565b809150509295509295909350565b5f60208284031215610fbe575f5ffd5b5035919050565b5f60208284031215610fd5575f5ffd5b8135610fe081610f2a565b9392505050565b5f60208284031215610ff7575f5ffd5b5051919050565b5f6020828403121561100e575f5ffd5b8151610fe081610f2a565b5f60208284031215611029575f5ffd5b81518015158114610fe0575f5ffd5b634e487b7160e01b5f52604160045260245ffd5b5f6020828403121561105c575f5ffd5b815167ffffffffffffffff811115611072575f5ffd5b8201601f81018413611082575f5ffd5b805167ffffffffffffffff81111561109c5761109c611038565b8060051b604051601f19603f830116810181811067ffffffffffffffff821117156110c9576110c9611038565b6040529182526020818401810192908101878411156110e6575f5ffd5b6020850194505b83851015611109578451808252602095860195909350016110ed565b509695505050505050565b634e487b7160e01b5f52603260045260245ffd5b5f6001820161114557634e487b7160e01b5f52601160045260245ffd5b5060010190565b60018060a01b0383168152604060208201525f82518060408401528060208501606085015e5f606082850101526060601f19601f830116840101915050939250505056fea2646970667358221220c9155122a7acb9da76003d504bb7dd40045dd06f4117c6efe8baff1bf23c01bf64736f6c634300081c0033","linkReferences":{}},"methodIdentifiers":{"initialize(address,address,address,address,address)":"1459457a","penaltyCount(address)":"a9330b0e","processAll()":"35d1193c","processedEpochs(uint256)":"4dfe19dd"},"id":37}