{"abi":[{"type":"function","name":"completeJob","inputs":[{"name":"jobId","type":"uint256","internalType":"uint256"}],"outputs":[],"stateMutability":"nonpayable"},{"type":"function","name":"confirmJob","inputs":[{"name":"jobId","type":"uint256","internalType":"uint256"}],"outputs":[],"stateMutability":"nonpayable"},{"type":"function","name":"failJob","inputs":[{"name":"jobId","type":"uint256","internalType":"uint256"},{"name":"reason","type":"string","internalType":"string"}],"outputs":[],"stateMutability":"nonpayable"},{"type":"function","name":"getAssignedNode","inputs":[{"name":"jobId","type":"uint256","internalType":"uint256"}],"outputs":[{"name":"","type":"uint256","internalType":"uint256"}],"stateMutability":"view"},{"type":"function","name":"getJobDetails","inputs":[{"name":"jobId","type":"uint256","internalType":"uint256"}],"outputs":[{"name":"","type":"tuple","internalType":"struct IJobManager.Job","components":[{"name":"id","type":"uint256","internalType":"uint256"},{"name":"submitter","type":"address","internalType":"address"},{"name":"assignedNode","type":"uint256","internalType":"uint256"},{"name":"status","type":"uint8","internalType":"enum IJobManager.JobStatus"},{"name":"requiredPool","type":"uint256","internalType":"uint256"},{"name":"args","type":"string","internalType":"string"},{"name":"baseModelName","type":"string","internalType":"string"},{"name":"ftType","type":"string","internalType":"string"},{"name":"numGpus","type":"uint256","internalType":"uint256"},{"name":"tokenCount","type":"uint256","internalType":"uint256"},{"name":"createdAt","type":"uint256","internalType":"uint256"}]}],"stateMutability":"view"},{"type":"function","name":"getJobStatus","inputs":[{"name":"jobId","type":"uint256","internalType":"uint256"}],"outputs":[{"name":"","type":"uint8","internalType":"enum IJobManager.JobStatus"}],"stateMutability":"view"},{"type":"function","name":"getJobsBySubmitter","inputs":[{"name":"submitter","type":"address","internalType":"address"}],"outputs":[{"name":"","type":"uint256[]","internalType":"uint256[]"}],"stateMutability":"view"},{"type":"function","name":"getJobsDetailsByNode","inputs":[{"name":"nodeId","type":"uint256","internalType":"uint256"}],"outputs":[{"name":"","type":"tuple[]","internalType":"struct IJobManager.Job[]","components":[{"name":"id","type":"uint256","internalType":"uint256"},{"name":"submitter","type":"address","internalType":"address"},{"name":"assignedNode","type":"uint256","internalType":"uint256"},{"name":"status","type":"uint8","internalType":"enum IJobManager.JobStatus"},{"name":"requiredPool","type":"uint256","internalType":"uint256"},{"name":"args","type":"string","internalType":"string"},{"name":"baseModelName","type":"string","internalType":"string"},{"name":"ftType","type":"string","internalType":"string"},{"name":"numGpus","type":"uint256","internalType":"uint256"},{"name":"tokenCount","type":"uint256","internalType":"uint256"},{"name":"createdAt","type":"uint256","internalType":"uint256"}]}],"stateMutability":"view"},{"type":"function","name":"getNodeInactivityEpochs","inputs":[{"name":"nodeId","type":"uint256","internalType":"uint256"}],"outputs":[{"name":"","type":"uint256","internalType":"uint256"}],"stateMutability":"view"},{"type":"function","name":"getUnconfirmedJobs","inputs":[{"name":"epoch","type":"uint256","internalType":"uint256"}],"outputs":[{"name":"","type":"uint256[]","internalType":"uint256[]"}],"stateMutability":"view"},{"type":"function","name":"initialize","inputs":[{"name":"_nodeManager","type":"address","internalType":"address"},{"name":"_leaderManager","type":"address","internalType":"address"},{"name":"_epochManager","type":"address","internalType":"address"},{"name":"_jobEscrow","type":"address","internalType":"address"},{"name":"_accessManager","type":"address","internalType":"address"}],"outputs":[],"stateMutability":"nonpayable"},{"type":"function","name":"processPayment","inputs":[{"name":"jobId","type":"uint256","internalType":"uint256"}],"outputs":[],"stateMutability":"nonpayable"},{"type":"function","name":"setTokenCountForJob","inputs":[{"name":"jobId","type":"uint256","internalType":"uint256"},{"name":"numTokens","type":"uint256","internalType":"uint256"}],"outputs":[],"stateMutability":"nonpayable"},{"type":"function","name":"startAssignmentRound","inputs":[],"outputs":[],"stateMutability":"nonpayable"},{"type":"function","name":"submitJob","inputs":[{"name":"jobArgs","type":"string","internalType":"string"},{"name":"baseModelName","type":"string","internalType":"string"},{"name":"ftType","type":"string","internalType":"string"}],"outputs":[{"name":"","type":"uint256","internalType":"uint256"}],"stateMutability":"nonpayable"},{"type":"function","name":"wasAssignmentRoundStarted","inputs":[{"name":"epoch","type":"uint256","internalType":"uint256"}],"outputs":[{"name":"","type":"bool","internalType":"bool"}],"stateMutability":"view"},{"type":"event","name":"AssignmentRoundStarted","inputs":[{"name":"epoch","type":"uint256","indexed":true,"internalType":"uint256"}],"anonymous":false},{"type":"event","name":"Initialized","inputs":[{"name":"version","type":"uint64","indexed":false,"internalType":"uint64"}],"anonymous":false},{"type":"event","name":"JobAssigned","inputs":[{"name":"jobId","type":"uint256","indexed":true,"internalType":"uint256"},{"name":"nodeId","type":"uint256","indexed":true,"internalType":"uint256"}],"anonymous":false},{"type":"event","name":"JobCompleted","inputs":[{"name":"jobId","type":"uint256","indexed":true,"internalType":"uint256"},{"name":"nodeId","type":"uint256","indexed":true,"internalType":"uint256"}],"anonymous":false},{"type":"event","name":"JobConfirmed","inputs":[{"name":"jobId","type":"uint256","indexed":true,"internalType":"uint256"},{"name":"nodeId","type":"uint256","indexed":true,"internalType":"uint256"}],"anonymous":false},{"type":"event","name":"JobFailed","inputs":[{"name":"jobId","type":"uint256","indexed":true,"internalType":"uint256"},{"name":"nodeId","type":"uint256","indexed":true,"internalType":"uint256"},{"name":"reason","type":"string","indexed":false,"internalType":"string"}],"anonymous":false},{"type":"event","name":"JobStatusUpdated","inputs":[{"name":"jobId","type":"uint256","indexed":true,"internalType":"uint256"},{"name":"status","type":"uint8","indexed":false,"internalType":"enum IJobManager.JobStatus"}],"anonymous":false},{"type":"event","name":"JobSubmitted","inputs":[{"name":"jobId","type":"uint256","indexed":true,"internalType":"uint256"},{"name":"submitter","type":"address","indexed":true,"internalType":"address"},{"name":"requiredPool","type":"uint256","indexed":false,"internalType":"uint256"}],"anonymous":false},{"type":"event","name":"JobTokensSet","inputs":[{"name":"jobId","type":"uint256","indexed":true,"internalType":"uint256"},{"name":"numTokens","type":"uint256","indexed":false,"internalType":"uint256"}],"anonymous":false},{"type":"event","name":"PaymentProcessed","inputs":[{"name":"jobId","type":"uint256","indexed":true,"internalType":"uint256"},{"name":"node","type":"address","indexed":true,"internalType":"address"},{"name":"amount","type":"uint256","indexed":false,"internalType":"uint256"}],"anonymous":false},{"type":"error","name":"InvalidInitialization","inputs":[]},{"type":"error","name":"InvalidModelName","inputs":[{"name":"modelName","type":"string","internalType":"string"}]},{"type":"error","name":"InvalidStatusTransition","inputs":[{"name":"from","type":"uint8","internalType":"enum IJobManager.JobStatus"},{"name":"to","type":"uint8","internalType":"enum IJobManager.JobStatus"}]},{"type":"error","name":"JobAlreadyProcessed","inputs":[{"name":"jobId","type":"uint256","internalType":"uint256"}]},{"type":"error","name":"JobNotComplete","inputs":[{"name":"jobId","type":"uint256","internalType":"uint256"}]},{"type":"error","name":"NotInitializing","inputs":[]}],"bytecode":{"object":"0x6080604052348015600e575f5ffd5b506133af8061001c5f395ff3fe608060405234801561000f575f5ffd5b50600436106100fb575f3560e01c806368d23f0111610093578063a6c58b6311610063578063a6c58b6314610242578063a9603b2a14610274578063d548008114610287578063e63a5d861461029a575f5ffd5b806368d23f01146101e257806375d7ed2914610214578063834ba1aa14610227578063a1c0d32f1461022f575f5ffd5b80634cac35c6116100ce5780634cac35c61461017c57806351d190e61461019c5780635d6d5dcd146101af5780635e39baaa146101cf575f5ffd5b806312a9d99a146100ff5780631459457a146101345780632fd68d47146101495780633a2f848514610169575b5f5ffd5b61012161010d366004612bdf565b5f9081526006602052604090206002015490565b6040519081526020015b60405180910390f35b610147610142366004612c0d565b6102ad565b005b61015c610157366004612bdf565b610409565b60405161012b9190612c7a565b610147610177366004612bdf565b61062a565b61018f61018a366004612bdf565b6107ff565b60405161012b9190612dcd565b61015c6101aa366004612de6565b610a5b565b6101c26101bd366004612bdf565b610ac4565b60405161012b9190612e01565b6101476101dd366004612ea8565b610e0d565b6102046101f0366004612bdf565b5f908152600e602052604090205460ff1690565b604051901515815260200161012b565b610147610222366004612eef565b610ec6565b610147610f75565b61014761023d366004612bdf565b611391565b610267610250366004612bdf565b5f9081526006602052604090206003015460ff1690565b60405161012b9190612f0f565b610121610282366004612f1d565b611446565b610147610295366004612bdf565b6119e8565b6101216102a8366004612bdf565b611b50565b7ff0c57e16840df040f15088dc2f81fe391c3923bec73e23a9662efc9c229c6a008054600160401b810460ff1615906001600160401b03165f811580156102f15750825b90505f826001600160401b0316600114801561030c5750303b155b90508115801561031a575080155b156103385760405163f92ee8a960e01b815260040160405180910390fd5b845467ffffffffffffffff19166001178555831561036257845460ff60401b1916600160401b1785555b5f80546001600160a01b03199081166001600160a01b038d8116919091179092556001805482168c84161790556002805482168b84161790556003805482168a84161790556004805490911691881691909117905583156103fd57845460ff60401b19168555604051600181527fc7f505b2f371ae2175ee4913f4499e1f2633a7b5936321eed1cdaeb6115181d29060200160405180910390a15b50505050505050505050565b5f81815260086020526040812080546060920361043957604080515f80825260208201909252905b509392505050565b80545f906001600160401b0381111561045457610454612fb9565b60405190808252806020026020018201604052801561047d578160200160208202803683370190505b5082549091505f5b835481101561055f575f8482815481106104a1576104a1612fcd565b5f918252602080832090910154808352600690915260409091206003015490915060ff1660028160048111156104d9576104d9612cb1565b14806104f6575060038160048111156104f4576104f4612cb1565b145b15610530575f85848151811061050e5761050e612fcd565b911515602092830291909101909101528361052881612ff5565b945050610555565b600185848151811061054457610544612fcd565b911515602092830291909101909101525b5050600101610485565b505f816001600160401b0381111561057957610579612fb9565b6040519080825280602002602001820160405280156105a2578160200160208202803683370190505b5090505f805b855481101561061e578481815181106105c3576105c3612fcd565b602002602001015115610616578581815481106105e2576105e2612fcd565b905f5260205f2001548383815181106105fd576105fd612fcd565b6020908102919091010152816106128161300a565b9250505b6001016105a8565b50909695505050505050565b5f818152600c602052604090205460ff161561066157604051631c8e58a760e01b8152600481018290526024015b60405180910390fd5b5f81815260066020526040902060038082015460ff16600481111561068857610688612cb1565b146106a9576040516314e0901f60e01b815260048101839052602401610658565b5f80546002830154604051635d3c373f60e01b81526001600160a01b0390921691635d3c373f916106e09160040190815260200190565b602060405180830381865afa1580156106fb573d5f5f3e3d5ffd5b505050506040513d601f19601f8201168201806040525081019061071f9190613022565b90505f61072b83611d76565b6003546001850154604051636322015360e01b81526001600160a01b03918216600482015285821660248201526044810184905292935016906363220153906064015f604051808303815f87803b158015610784575f5ffd5b505af1158015610796573d5f5f3e3d5ffd5b5050505f858152600c602052604090819020805460ff19166001179055516001600160a01b038416915085907f354a7e09d58acfc69c01f51ad9c6b43c46501b660e7790d744ee8421936e3d3b906107f19085815260200190565b60405180910390a350505050565b610807612b8a565b5f828152600660209081526040918290208251610160810184528154815260018201546001600160a01b0316928101929092526002810154928201929092526003820154909190606083019060ff16600481111561086757610867612cb1565b600481111561087857610878612cb1565b8152602001600482015481526020016005820180546108969061303d565b80601f01602080910402602001604051908101604052809291908181526020018280546108c29061303d565b801561090d5780601f106108e45761010080835404028352916020019161090d565b820191905f5260205f20905b8154815290600101906020018083116108f057829003601f168201915b505050505081526020016006820180546109269061303d565b80601f01602080910402602001604051908101604052809291908181526020018280546109529061303d565b801561099d5780601f106109745761010080835404028352916020019161099d565b820191905f5260205f20905b81548152906001019060200180831161098057829003601f168201915b505050505081526020016007820180546109b69061303d565b80601f01602080910402602001604051908101604052809291908181526020018280546109e29061303d565b8015610a2d5780601f10610a0457610100808354040283529160200191610a2d565b820191905f5260205f20905b815481529060010190602001808311610a1057829003601f168201915b505050505081526020016008820154815260200160098201548152602001600a820154815250509050919050565b6001600160a01b0381165f90815260096020908152604091829020805483518184028101840190945280845260609392830182828015610ab857602002820191905f5260205f20905b815481526020019060010190808311610aa4575b50505050509050919050565b5f818152600a60209081526040808320805482518185028101850190935280835260609493830182828015610b1657602002820191905f5260205f20905b815481526020019060010190808311610b02575b505050505090505f81516001600160401b03811115610b3757610b37612fb9565b604051908082528060200260200182016040528015610b7057816020015b610b5d612b8a565b815260200190600190039081610b555790505b5090505f5b82518110156104315760065f848381518110610b9357610b93612fcd565b60209081029190910181015182528181019290925260409081015f208151610160810183528154815260018201546001600160a01b0316938101939093526002810154918301919091526003810154606083019060ff166004811115610bfb57610bfb612cb1565b6004811115610c0c57610c0c612cb1565b815260200160048201548152602001600582018054610c2a9061303d565b80601f0160208091040260200160405190810160405280929190818152602001828054610c569061303d565b8015610ca15780601f10610c7857610100808354040283529160200191610ca1565b820191905f5260205f20905b815481529060010190602001808311610c8457829003601f168201915b50505050508152602001600682018054610cba9061303d565b80601f0160208091040260200160405190810160405280929190818152602001828054610ce69061303d565b8015610d315780601f10610d0857610100808354040283529160200191610d31565b820191905f5260205f20905b815481529060010190602001808311610d1457829003601f168201915b50505050508152602001600782018054610d4a9061303d565b80601f0160208091040260200160405190810160405280929190818152602001828054610d769061303d565b8015610dc15780601f10610d9857610100808354040283529160200191610dc1565b820191905f5260205f20905b815481529060010190602001808311610da457829003601f168201915b505050505081526020016008820154815260200160098201548152602001600a82015481525050828281518110610dfa57610dfa612fcd565b6020908102919091010152600101610b75565b5f83815260066020526040808220915460028301549151631502110b60e31b815260048101929092523360248301526001600160a01b03169063a8108858906044015f6040518083038186803b158015610e65575f5ffd5b505afa158015610e77573d5f5f3e3d5ffd5b50505050610e84846120ee565b610e8f8460046121b9565b8060020154847fba34e1889848dbd19cc9b1eb60bd2eae2d9f1c7f6b9b03cad14d9424c02e431f85856040516107f1929190613075565b5f82815260066020526040808220915460028301549151631502110b60e31b815260048101929092523360248301526001600160a01b03169063a8108858906044015f6040518083038186803b158015610f1e575f5ffd5b505afa158015610f30573d5f5f3e3d5ffd5b505050506009810182905560405182815283907f5b00695dd2a34b41a3a193aa8a35f0d4a5f88c319fa95aabd28c959840812c589060200160405180910390a2505050565b60025460405163054187b160e11b81526001600160a01b0390911690630a830f6290610fa6906003906004016130a3565b5f6040518083038186803b158015610fbc575f5ffd5b505afa158015610fce573d5f5f3e3d5ffd5b50506001546040516392c8532560e01b81523360048201526001600160a01b0390911692506392c8532591506024015f6040518083038186803b158015611013575f5ffd5b505afa158015611025573d5f5f3e3d5ffd5b505050506001600e5f60025f9054906101000a90046001600160a01b03166001600160a01b031663b97dd9e26040518163ffffffff1660e01b8152600401602060405180830381865afa15801561107e573d5f5f3e3d5ffd5b505050506040513d601f19601f820116820180604052508101906110a291906130bd565b815260208082019290925260409081015f908120805460ff191694151594909417909355828052600782527f6d5257204ebe7d88fd91ae87941cb2dd9d8062b64ae5a2bd2d28ec40b9fbf6df8054825181850281018501909352808352919290919083018282801561113157602002820191905f5260205f20905b81548152602001906001019080831161111d575b5050505050905080515f036111435750565b60015460025460408051635cbeecf160e11b815290515f936001600160a01b039081169363b90744409391169163b97dd9e2916004808201926020929091908290030181865afa158015611199573d5f5f3e3d5ffd5b505050506040513d601f19601f820116820180604052508101906111bd91906130bd565b6040518263ffffffff1660e01b81526004016111db91815260200190565b602060405180830381865afa1580156111f6573d5f5f3e3d5ffd5b505050506040513d601f19601f8201168201806040525081019061121a91906130bd565b90505f5b82518110156112f0575f83828151811061123a5761123a612fcd565b602002602001015190505f60065f8381526020019081526020015f2090505f61126682600401546122b5565b905080515f03611278575050506112e8565b5f81518685604051602001611297929190918252602082015260400190565b604051602081830303815290604052805190602001205f1c6112b991906130e8565b90505f8282815181106112ce576112ce612fcd565b602002602001015190506112e28582612582565b50505050505b60010161121e565b5060025f9054906101000a90046001600160a01b03166001600160a01b031663b97dd9e26040518163ffffffff1660e01b8152600401602060405180830381865afa158015611341573d5f5f3e3d5ffd5b505050506040513d601f19601f8201168201806040525081019061136591906130bd565b6040517fbc0a8ca407b8e6e9055b5b033cfd79822a901dba399f257df14cd87267215237905f90a25050565b5f81815260066020526040808220915460028301549151631502110b60e31b815260048101929092523360248301526001600160a01b03169063a8108858906044015f6040518083038186803b1580156113e9575f5ffd5b505afa1580156113fb573d5f5f3e3d5ffd5b5050505061140a8260036121b9565b611413826120ee565b600281015460405183907f152d31e943f2d79d470375c901f5a6cfb7d465ee4969db651885948d3b6015b8905f90a35050565b600354604051631bf074f360e11b81523360048201526801158e460913d0000060248201525f916001600160a01b0316906337e0e9e6906044015f6040518083038186803b158015611496575f5ffd5b505afa1580156114a8573d5f5f3e3d5ffd5b505060058054925090505f6114bc8361300a565b9091555050600554604051686c6c6d5f64756d6d7960b81b60208201525f9060019060290160405160208183030381529060405280519060200120888860405160200161150a9291906130fb565b604051602081830303815290604052805190602001200361153057505f9050600161176d565b6040516e363636afb63630b6b099af992f98b160891b6020820152602f016040516020818303038152906040528051906020012088886040516020016115779291906130fb565b604051602081830303815290604052805190602001200361159f57506101f49050600161176d565b6040516e363636afb63630b6b099af992f99b160891b6020820152602f016040516020818303038152906040528051906020012088886040516020016115e69291906130fb565b604051602081830303815290604052805190602001200361160e57506101f49050600161176d565b6040516e363636afb63630b6b099af98af9c3160891b6020820152602f016040516020818303038152906040528051906020012088886040516020016116559291906130fb565b604051602081830303815290604052805190602001200361167d57506101f49050600161176d565b6040516f363636afb63630b6b099af99af9b983160811b60208201526030016040516020818303038152906040528051906020012088886040516020016116c59291906130fb565b604051602081830303815290604052805190602001200361175157604051631195531360e21b602082015260240160405160208183030381529060405280519060200120868660405160200161171c9291906130fb565b604051602081830303815290604052805190602001200361174457506120d09050600861176d565b50610a8c9050600461176d565b8787604051620489d360ed1b8152600401610658929190613075565b60408051610160810182528481523360208201525f91810182905290606082019081526020018381526020018b8b8080601f0160208091040260200160405190810160405280939291908181526020018383808284375f92019190915250505090825250604080516020601f8c018190048102820181019092528a815291810191908b908b90819084018382808284375f92019190915250505090825250604080516020601f8a01819004810282018101909252888152918101919089908990819084018382808284375f920182905250938552505050602080830185905260408084018390524260609485015287835260068252918290208451815590840151600180830180546001600160a01b0319166001600160a01b0390931692909217909155918401516002820155918301516003830180549192909160ff1916908360048111156118bf576118bf612cb1565b02179055506080820151600482015560a082015160058201906118e29082613153565b5060c082015160068201906118f79082613153565b5060e0820151600782019061190c9082613153565b50610100820151600882015561012082015160098083019190915561014090920151600a909101557f6d5257204ebe7d88fd91ae87941cb2dd9d8062b64ae5a2bd2d28ec40b9fbf6df805460018082019092557fd9e659536a2f603b20938d4b8c1783b32b56367744f7b53b49ad35612a31e7ca01859055335f81815260209384526040808220805494850181558252908490209092018690559051848152909185917f2a1891fce7851bec7afbe4c6f89d0aa0bed5e261151ab172a3d065c780e547c4910160405180910390a3509098975050505050505050565b60025460405163054187b160e11b81526001600160a01b0390911690630a830f6290611a189060049081016130a3565b5f6040518083038186803b158015611a2e575f5ffd5b505afa158015611a40573d5f5f3e3d5ffd5b5050505f82815260066020526040808220915460028301549151631502110b60e31b815260048101929092523360248301529192506001600160a01b039091169063a8108858906044015f6040518083038186803b158015611aa0575f5ffd5b505afa158015611ab2573d5f5f3e3d5ffd5b505060025460405163054187b160e11b81526001600160a01b039091169250630a830f629150611ae69060049081016130a3565b5f6040518083038186803b158015611afc575f5ffd5b505afa158015611b0e573d5f5f3e3d5ffd5b50505050611b1d8260026121b9565b600281015460405183907f3d3c3c595606dc54e30c05145681c779deeaa58436161b06cf1303b89f705dd5905f90a35050565b60025f908152600760209081527fb7c774451310d1be4108bc180d1b52823cb0ee0274a6c0081bcaf94f115fb96d80546040805182850281018501909152818152849390929190830182828015611bc457602002820191905f5260205f20905b815481526020019060010190808311611bb0575b509394505f93505050505b8151811015611c1d578360065f848481518110611bee57611bee612fcd565b602002602001015181526020019081526020015f206002015403611c1557505f9392505050565b600101611bcf565b5060025460408051635cbeecf160e11b815290515f926001600160a01b03169163b97dd9e29160048083019260209291908290030181865afa158015611c65573d5f5f3e3d5ffd5b505050506040513d601f19601f82011682018060405250810190611c8991906130bd565b9050601e815b611c99828461320d565b811115611d6d5760015460405163d372b84760e01b8152600481018390525f916001600160a01b03169063d372b847906024015f60405180830381865afa158015611ce6573d5f5f3e3d5ffd5b505050506040513d5f823e601f3d908101601f19168201604052611d0d9190810190613220565b90505f5b8151811015611d585787828281518110611d2d57611d2d612fcd565b602002602001015103611d5057611d44838661320d565b98975050505050505050565b600101611d11565b50508080611d6590612ff5565b915050611c8f565b50949350505050565b5f5f5f90505f836006018054611d8b9061303d565b80601f0160208091040260200160405190810160405280929190818152602001828054611db79061303d565b8015611e025780601f10611dd957610100808354040283529160200191611e02565b820191905f5260205f20905b815481529060010190602001808311611de557829003601f168201915b50505050509050604051602001611e2e906e363636afb63630b6b099af992f98b160891b8152600f0190565b6040516020818303038152906040528051906020012081604051602001611e5591906132e5565b6040516020818303038152906040528051906020012003611e8057670de0b6b3a764000091506120c6565b6040516e363636afb63630b6b099af992f99b160891b6020820152602f016040516020818303038152906040528051906020012081604051602001611ec591906132e5565b6040516020818303038152906040528051906020012003611ef057671bc16d674ec8000091506120c6565b6040516e363636afb63630b6b099af98af9c3160891b6020820152602f016040516020818303038152906040528051906020012081604051602001611f3591906132e5565b6040516020818303038152906040528051906020012003611f6057673782dace9d90000091506120c6565b6040516f363636afb63630b6b099af98af9b983160811b60208201526030016040516020818303038152906040528051906020012081604051602001611fa691906132e5565b6040516020818303038152906040528051906020012003611fd15767a688906bd8b0000091506120c6565b6040516f363636afb63630b6b099af99af9b983160811b6020820152603001604051602081830303815290604052805190602001208160405160200161201791906132e5565b60405160208183030381529060405280519060200120036120425767a688906bd8b0000091506120c6565b604051686c6c6d5f64756d6d7960b81b6020820152602901604051602081830303815290604052805190602001208160405160200161208191906132e5565b60405160208183030381529060405280519060200120036120ac57670de0b6b3a764000091506120c6565b80604051620489d360ed1b815260040161065891906132fb565b5f620f42408560090154846120db919061330d565b6120e59190613324565b95945050505050565b5f8181526006602090815260408083206002810154808552600a90935290832090925b81548110156121b2578482828154811061212d5761212d612fcd565b905f5260205f200154036121aa578154829061214b9060019061320d565b8154811061215b5761215b612fcd565b905f5260205f20015482828154811061217657612176612fcd565b905f5260205f2001819055508180548061219257612192613337565b600190038181905f5260205f20015f905590556121b2565b600101612111565b5050505050565b5f828152600660205260409020600381015460ff166121d881846126ff565b6121f957808360405163e3962ba360e01b815260040161065892919061334b565b61220384826127a0565b60038201805484919060ff1916600183600481111561222457612224612cb1565b021790555060075f84600481111561223e5761223e612cb1565b600481111561224f5761224f612cb1565b815260208082019290925260409081015f90812080546001810182559082529290209091018590555184907f11b03c284cc2f2f20a0797445fdd3b96339380cd6fbb5a0bf34ba9afa7d70271906122a7908690612f0f565b60405180910390a250505050565b5f80546040805163ce8f467560e01b81529051606093926001600160a01b03169163ce8f467591600480830192869291908290030181865afa1580156122fd573d5f5f3e3d5ffd5b505050506040513d5f823e601f3d908101601f191682016040526123249190810190613220565b90505f805b8251811015612404578483828151811061234557612345612fcd565b6020026020010151106123fc575f805484516001600160a01b039091169063e60154319086908590811061237b5761237b612fcd565b60200260200101516040518263ffffffff1660e01b81526004016123a191815260200190565b5f60405180830381865afa1580156123bb573d5f5f3e3d5ffd5b505050506040513d5f823e601f3d908101601f191682016040526123e29190810190613220565b90506123ed81612882565b516123f89084613366565b9250505b600101612329565b505f816001600160401b0381111561241e5761241e612fb9565b604051908082528060200260200182016040528015612447578160200160208202803683370190505b5090505f805b8451811015612577578685828151811061246957612469612fcd565b60200260200101511061256f575f805486516001600160a01b039091169063e60154319088908590811061249f5761249f612fcd565b60200260200101516040518263ffffffff1660e01b81526004016124c591815260200190565b5f60405180830381865afa1580156124df573d5f5f3e3d5ffd5b505050506040513d5f823e601f3d908101601f191682016040526125069190810190613220565b90505f61251282612882565b90505f5b815181101561256b5781818151811061253157612531612fcd565b602002602001015186868151811061254b5761254b612fcd565b6020908102919091010152846125608161300a565b955050600101612516565b5050505b60010161244d565b509095945050505050565b5f8281526006602052604081209061259b9084906127a0565b6002818101839055600382018054600160ff1991821681179092555f858152600a602090815260408083208054808701825590845282842001899055888352600b825280832080549094168517909355600781527fb39221ace053465ec3453ce2b36430bd138b997ecea25c1043da0c366812b8288054948501815582527fb2401e68d452ad3af4aed95d6e19d1a690ed00a9a5bee1b2b0a83b6028446a4f90930187905592548151635cbeecf160e11b81529151600894936001600160a01b039092169263b97dd9e29260048083019391928290030181865afa158015612685573d5f5f3e3d5ffd5b505050506040513d601f19601f820116820180604052508101906126a991906130bd565b815260208082019290925260409081015f908120805460018101825590825292812090920185905551839185917f7deabdc12ac3a37ec2eb821d385b4ced86c835342e47315926fd016e1c5fead69190a3505050565b5f8083600481111561271357612713612cb1565b036127355760015b82600481111561272d5761272d612cb1565b14905061279a565b600183600481111561274957612749612cb1565b0361275557600261271b565b600283600481111561276957612769612cb1565b0361279757600382600481111561278257612782612cb1565b14806127905750600461271b565b905061279a565b505f5b92915050565b5f60075f8360048111156127b6576127b6612cb1565b60048111156127c7576127c7612cb1565b81526020019081526020015f2090505f5f90505b815481101561287c57838282815481106127f7576127f7612fcd565b905f5260205f2001540361287457815482906128159060019061320d565b8154811061282557612825612fcd565b905f5260205f20015482828154811061284057612840612fcd565b905f5260205f2001819055508180548061285c5761285c613337565b600190038181905f5260205f20015f9055905561287c565b6001016127db565b50505050565b60015460025460408051635cbeecf160e11b815290516060935f936001600160a01b039182169363d372b84793919092169163b97dd9e29160048083019260209291908290030181865afa1580156128dc573d5f5f3e3d5ffd5b505050506040513d601f19601f8201168201806040525081019061290091906130bd565b6040518263ffffffff1660e01b815260040161291e91815260200190565b5f60405180830381865afa158015612938573d5f5f3e3d5ffd5b505050506040513d5f823e601f3d908101601f1916820160405261295f9190810190613220565b90505f81516001600160401b0381111561297b5761297b612fb9565b6040519080825280602002602001820160405280156129a4578160200160208202803683370190505b5090505f805b8551811015612a51575f5b8451811015612a48578481815181106129d0576129d0612fcd565b60200260200101518783815181106129ea576129ea612fcd565b602002602001015103612a4057868281518110612a0957612a09612fcd565b6020026020010151848481518110612a2357612a23612fcd565b602090810291909101015282612a388161300a565b935050612a48565b6001016129b5565b506001016129aa565b505f805b82811015612aa9576001600a5f868481518110612a7457612a74612fcd565b602002602001015181526020019081526020015f20805490501015612aa15781612a9d8161300a565b9250505b600101612a55565b505f816001600160401b03811115612ac357612ac3612fb9565b604051908082528060200260200182016040528015612aec578160200160208202803683370190505b5090505f805b84811015612b7d576001600a5f888481518110612b1157612b11612fcd565b602002602001015181526020019081526020015f20805490501015612b7557858181518110612b4257612b42612fcd565b6020026020010151838381518110612b5c57612b5c612fcd565b602090810291909101015281612b718161300a565b9250505b600101612af2565b5090979650505050505050565b60408051610160810182525f8082526020820181905291810182905290606082019081526020015f81526020016060815260200160608152602001606081526020015f81526020015f81526020015f81525090565b5f60208284031215612bef575f5ffd5b5035919050565b6001600160a01b0381168114612c0a575f5ffd5b50565b5f5f5f5f5f60a08688031215612c21575f5ffd5b8535612c2c81612bf6565b94506020860135612c3c81612bf6565b93506040860135612c4c81612bf6565b92506060860135612c5c81612bf6565b91506080860135612c6c81612bf6565b809150509295509295909350565b602080825282518282018190525f918401906040840190835b81811015612577578351835260209384019390920191600101612c93565b634e487b7160e01b5f52602160045260245ffd5b60058110612cd557612cd5612cb1565b9052565b5f81518084528060208401602086015e5f602082860101526020601f19601f83011685010191505092915050565b805182525f6020820151612d2660208501826001600160a01b03169052565b50604082015160408401526060820151612d436060850182612cc5565b506080820151608084015260a082015161016060a0850152612d69610160850182612cd9565b905060c083015184820360c0860152612d828282612cd9565b91505060e083015184820360e0860152612d9c8282612cd9565b9150506101008301516101008501526101208301516101208501526101408301516101408501528091505092915050565b602081525f612ddf6020830184612d07565b9392505050565b5f60208284031215612df6575f5ffd5b8135612ddf81612bf6565b5f602082016020835280845180835260408501915060408160051b8601019250602086015f5b82811015612e5857603f19878603018452612e43858351612d07565b94506020938401939190910190600101612e27565b50929695505050505050565b5f5f83601f840112612e74575f5ffd5b5081356001600160401b03811115612e8a575f5ffd5b602083019150836020828501011115612ea1575f5ffd5b9250929050565b5f5f5f60408486031215612eba575f5ffd5b8335925060208401356001600160401b03811115612ed6575f5ffd5b612ee286828701612e64565b9497909650939450505050565b5f5f60408385031215612f00575f5ffd5b50508035926020909101359150565b6020810161279a8284612cc5565b5f5f5f5f5f5f60608789031215612f32575f5ffd5b86356001600160401b03811115612f47575f5ffd5b612f5389828a01612e64565b90975095505060208701356001600160401b03811115612f71575f5ffd5b612f7d89828a01612e64565b90955093505060408701356001600160401b03811115612f9b575f5ffd5b612fa789828a01612e64565b979a9699509497509295939492505050565b634e487b7160e01b5f52604160045260245ffd5b634e487b7160e01b5f52603260045260245ffd5b634e487b7160e01b5f52601160045260245ffd5b5f8161300357613003612fe1565b505f190190565b5f6001820161301b5761301b612fe1565b5060010190565b5f60208284031215613032575f5ffd5b8151612ddf81612bf6565b600181811c9082168061305157607f821691505b60208210810361306f57634e487b7160e01b5f52602260045260245ffd5b50919050565b60208152816020820152818360408301375f818301604090810191909152601f909201601f19160101919050565b60208101600783106130b7576130b7612cb1565b91905290565b5f602082840312156130cd575f5ffd5b5051919050565b634e487b7160e01b5f52601260045260245ffd5b5f826130f6576130f66130d4565b500690565b818382375f9101908152919050565b601f82111561314e57805f5260205f20601f840160051c8101602085101561312f5750805b601f840160051c820191505b818110156121b2575f815560010161313b565b505050565b81516001600160401b0381111561316c5761316c612fb9565b6131808161317a845461303d565b8461310a565b6020601f8211600181146131b2575f831561319b5750848201515b5f19600385901b1c1916600184901b1784556121b2565b5f84815260208120601f198516915b828110156131e157878501518255602094850194600190920191016131c1565b50848210156131fe57868401515f19600387901b60f8161c191681555b50505050600190811b01905550565b8181038181111561279a5761279a612fe1565b5f60208284031215613230575f5ffd5b81516001600160401b03811115613245575f5ffd5b8201601f81018413613255575f5ffd5b80516001600160401b0381111561326e5761326e612fb9565b8060051b604051601f19603f83011681018181106001600160401b038211171561329a5761329a612fb9565b6040529182526020818401810192908101878411156132b7575f5ffd5b6020850194505b838510156132da578451808252602095860195909350016132be565b509695505050505050565b5f82518060208501845e5f920191825250919050565b602081525f612ddf6020830184612cd9565b808202811582820484141761279a5761279a612fe1565b5f82613332576133326130d4565b500490565b634e487b7160e01b5f52603160045260245ffd5b604081016133598285612cc5565b612ddf6020830184612cc5565b8082018082111561279a5761279a612fe156fea26469706673582212200a3d52d8549c75dce79577cd9eab589565b75ee8fafe94824563bf3034d1058d64736f6c634300081c0033","linkReferences":{}},"methodIdentifiers":{"completeJob(uint256)":"a1c0d32f","confirmJob(uint256)":"d5480081","failJob(uint256,string)":"5e39baaa","getAssignedNode(uint256)":"12a9d99a","getJobDetails(uint256)":"4cac35c6","getJobStatus(uint256)":"a6c58b63","getJobsBySubmitter(address)":"51d190e6","getJobsDetailsByNode(uint256)":"5d6d5dcd","getNodeInactivityEpochs(uint256)":"e63a5d86","getUnconfirmedJobs(uint256)":"2fd68d47","initialize(address,address,address,address,address)":"1459457a","processPayment(uint256)":"3a2f8485","setTokenCountForJob(uint256,uint256)":"75d7ed29","startAssignmentRound()":"834ba1aa","submitJob(string,string,string)":"a9603b2a","wasAssignmentRoundStarted(uint256)":"68d23f01"},"id":39}