{"abi":[{"type":"function","name":"ADMIN_ROLE","inputs":[],"outputs":[{"name":"","type":"bytes32","internalType":"bytes32"}],"stateMutability":"view"},{"type":"function","name":"COMMIT_DURATION","inputs":[],"outputs":[{"name":"","type":"uint256","internalType":"uint256"}],"stateMutability":"view"},{"type":"function","name":"CONFIRM_DURATION","inputs":[],"outputs":[{"name":"","type":"uint256","internalType":"uint256"}],"stateMutability":"view"},{"type":"function","name":"CONTRACTS_ROLE","inputs":[],"outputs":[{"name":"","type":"bytes32","internalType":"bytes32"}],"stateMutability":"view"},{"type":"function","name":"DISPUTER_REWARD","inputs":[],"outputs":[{"name":"","type":"uint256","internalType":"uint256"}],"stateMutability":"view"},{"type":"function","name":"DISPUTE_DURATION","inputs":[],"outputs":[{"name":"","type":"uint256","internalType":"uint256"}],"stateMutability":"view"},{"type":"function","name":"ELECT_DURATION","inputs":[],"outputs":[{"name":"","type":"uint256","internalType":"uint256"}],"stateMutability":"view"},{"type":"function","name":"EPOCH_DURATION","inputs":[],"outputs":[{"name":"","type":"uint256","internalType":"uint256"}],"stateMutability":"view"},{"type":"function","name":"EXECUTE_DURATION","inputs":[],"outputs":[{"name":"","type":"uint256","internalType":"uint256"}],"stateMutability":"view"},{"type":"function","name":"JOB_AVAILABILITY_REWARD","inputs":[],"outputs":[{"name":"","type":"uint256","internalType":"uint256"}],"stateMutability":"view"},{"type":"function","name":"JOB_NOT_CONFIRMED_PENALTY","inputs":[],"outputs":[{"name":"","type":"uint256","internalType":"uint256"}],"stateMutability":"view"},{"type":"function","name":"LEADER_NOT_EXECUTED_PENALTY","inputs":[],"outputs":[{"name":"","type":"uint256","internalType":"uint256"}],"stateMutability":"view"},{"type":"function","name":"LEADER_REWARD","inputs":[],"outputs":[{"name":"","type":"uint256","internalType":"uint256"}],"stateMutability":"view"},{"type":"function","name":"LOCK_PERIOD","inputs":[],"outputs":[{"name":"","type":"uint256","internalType":"uint256"}],"stateMutability":"view"},{"type":"function","name":"MAX_PENALTIES_BEFORE_SLASH","inputs":[],"outputs":[{"name":"","type":"uint256","internalType":"uint256"}],"stateMutability":"view"},{"type":"function","name":"MIN_BALANCE_TO_SUBMIT","inputs":[],"outputs":[{"name":"","type":"uint256","internalType":"uint256"}],"stateMutability":"view"},{"type":"function","name":"MIN_DEPOSIT","inputs":[],"outputs":[{"name":"","type":"uint256","internalType":"uint256"}],"stateMutability":"view"},{"type":"function","name":"OPERATOR_ROLE","inputs":[],"outputs":[{"name":"","type":"bytes32","internalType":"bytes32"}],"stateMutability":"view"},{"type":"function","name":"REVEAL_DURATION","inputs":[],"outputs":[{"name":"","type":"uint256","internalType":"uint256"}],"stateMutability":"view"},{"type":"function","name":"STAKE_PER_RATING","inputs":[],"outputs":[{"name":"","type":"uint256","internalType":"uint256"}],"stateMutability":"view"},{"type":"function","name":"WHITELIST_COOLDOWN","inputs":[],"outputs":[{"name":"","type":"uint256","internalType":"uint256"}],"stateMutability":"view"}],"bytecode":{"object":"0x6102e4610034600b8282823980515f1a607314602857634e487b7160e01b5f525f60045260245ffd5b305f52607381538281f3fe730000000000000000000000000000000000000000301460806040526004361061013d575f3560e01c8063a210b10b116100bf578063c93ad92d11610084578063c93ad92d1461020f578063ceef94501461018b578063dc73afb614610219578063e1e158a51461017b578063e71627501461018b578063f5b541a614610228575f5ffd5b8063a210b10b146101a2578063a70b9f0c146101e0578063a787ad97146101e8578063b39773a61461018b578063b971e2fd1461018b575f5ffd5b80633e8da432116101055780633e8da4321461018b57806342c5549c1461019357806347f5d5f7146101a25780635e376668146101b157806375b238fc146101b9575f5ffd5b8063021acd8c146101415780630d74f38a146101625780631820cabb14610171578063281bca991461017b5780632bbf45341461018b575b5f5ffd5b61015067d02ab486cedc000081565b60405190815260200160405180910390f35b610150674563918244f4000081565b6101506201518081565b6101506801158e460913d0000081565b610150601e81565b610150670de0b6b3a764000081565b610150678ac7230489e8000081565b610150600a81565b6101507fa49807205ce4d355092ef5a8a18f56e8913cf4a201fbe287825b095693c2177581565b61015061024f565b6101507f9253af9d8282c03c44bbb1e9529141344c782647a2f67ba24c8954db1de58ca981565b6101506203f48081565b6101506706f05b59d3b2000081565b6101507f97667070c54ef182b0f5858b034beac1b6f3089aa2d3188bb1e8929f4fa9b92981565b601e80808061025e8180610289565b6102689190610289565b6102729190610289565b61027c9190610289565b6102869190610289565b81565b808201808211156102a857634e487b7160e01b5f52601160045260245ffd5b9291505056fea26469706673582212205e378ffbbd41dea9c1ace96528a977a2ca6d377061d927f5e5466428c7d8a75964736f6c634300081c0033","linkReferences":{}},"methodIdentifiers":{"ADMIN_ROLE()":"75b238fc","COMMIT_DURATION()":"b971e2fd","CONFIRM_DURATION()":"e7162750","CONTRACTS_ROLE()":"a787ad97","DISPUTER_REWARD()":"dc73afb6","DISPUTE_DURATION()":"ceef9450","ELECT_DURATION()":"2bbf4534","EPOCH_DURATION()":"a70b9f0c","EXECUTE_DURATION()":"3e8da432","JOB_AVAILABILITY_REWARD()":"42c5549c","JOB_NOT_CONFIRMED_PENALTY()":"a210b10b","LEADER_NOT_EXECUTED_PENALTY()":"021acd8c","LEADER_REWARD()":"0d74f38a","LOCK_PERIOD()":"1820cabb","MAX_PENALTIES_BEFORE_SLASH()":"5e376668","MIN_BALANCE_TO_SUBMIT()":"281bca99","MIN_DEPOSIT()":"e1e158a5","OPERATOR_ROLE()":"f5b541a6","REVEAL_DURATION()":"b39773a6","STAKE_PER_RATING()":"47f5d5f7","WHITELIST_COOLDOWN()":"c93ad92d"},"id":56}