{"abi":[{"type":"function","name":"addCP","inputs":[{"name":"cp","type":"address","internalType":"address"}],"outputs":[],"stateMutability":"nonpayable"},{"type":"function","name":"initialize","inputs":[{"name":"_accessManager","type":"address","internalType":"address"}],"outputs":[],"stateMutability":"nonpayable"},{"type":"function","name":"removeCP","inputs":[{"name":"cp","type":"address","internalType":"address"}],"outputs":[],"stateMutability":"nonpayable"},{"type":"function","name":"requireWhitelisted","inputs":[{"name":"cp","type":"address","internalType":"address"}],"outputs":[],"stateMutability":"view"},{"type":"event","name":"CPAdded","inputs":[{"name":"cp","type":"address","indexed":true,"internalType":"address"},{"name":"timestamp","type":"uint256","indexed":false,"internalType":"uint256"}],"anonymous":false},{"type":"event","name":"CPRemoved","inputs":[{"name":"cp","type":"address","indexed":true,"internalType":"address"},{"name":"timestamp","type":"uint256","indexed":false,"internalType":"uint256"}],"anonymous":false},{"type":"event","name":"Initialized","inputs":[{"name":"version","type":"uint64","indexed":false,"internalType":"uint64"}],"anonymous":false},{"type":"error","name":"AlreadyWhitelisted","inputs":[{"name":"cp","type":"address","internalType":"address"}]},{"type":"error","name":"CooldownActive","inputs":[{"name":"cp","type":"address","internalType":"address"},{"name":"remainingTime","type":"uint256","internalType":"uint256"}]},{"type":"error","name":"InvalidInitialization","inputs":[]},{"type":"error","name":"NotInitializing","inputs":[]},{"type":"error","name":"NotWhitelisted","inputs":[{"name":"cp","type":"address","internalType":"address"}]}],"bytecode":{"object":"0x6080604052348015600e575f5ffd5b506106eb8061001c5f395ff3fe608060405234801561000f575f5ffd5b506004361061004a575f3560e01c806388fff2721461004e578063c4d66de814610063578063df942eea14610076578063ed653ef414610089575b5f5ffd5b61006161005c36600461063b565b61009c565b005b61006161007136600461063b565b610299565b61006161008436600461063b565b6103b8565b61006161009736600461063b565b6105f5565b5f5460405163d09a20c560e01b81527f97667070c54ef182b0f5858b034beac1b6f3089aa2d3188bb1e8929f4fa9b92960048201523360248201526001600160a01b039091169063d09a20c5906044015f6040518083038186803b158015610102575f5ffd5b505afa158015610114573d5f5f3e3d5ffd5b505050506001600160a01b0381165f9081526001602052604090205460ff1661016057604051636f8bf18b60e11b81526001600160a01b03821660048201526024015b60405180910390fd5b6001600160a01b0381165f908152600160208181526040808420805460ff19168155426002918201556003909252832054815490939261019f91610668565b815481106101af576101af61068d565b5f91825260209091200154600280546001600160a01b0390921692508291849081106101dd576101dd61068d565b5f91825260208083209190910180546001600160a01b0319166001600160a01b0394851617905591831681526003909152604090208290556002805480610226576102266106a1565b5f82815260208082205f19908401810180546001600160a01b03191690559092019092556001600160a01b0385168083526003825260408084209390935591514281527f714b7311215425a7c412163df20a2d1ba8a473bf493cf8e765307d0166d4ce32910160405180910390a2505050565b7ff0c57e16840df040f15088dc2f81fe391c3923bec73e23a9662efc9c229c6a008054600160401b810460ff16159067ffffffffffffffff165f811580156102de5750825b90505f8267ffffffffffffffff1660011480156102fa5750303b155b905081158015610308575080155b156103265760405163f92ee8a960e01b815260040160405180910390fd5b845467ffffffffffffffff19166001178555831561035057845460ff60401b1916600160401b1785555b5f80546001600160a01b0319166001600160a01b03881617905583156103b057845460ff60401b19168555604051600181527fc7f505b2f371ae2175ee4913f4499e1f2633a7b5936321eed1cdaeb6115181d29060200160405180910390a15b505050505050565b5f5460405163d09a20c560e01b81527f97667070c54ef182b0f5858b034beac1b6f3089aa2d3188bb1e8929f4fa9b92960048201523360248201526001600160a01b039091169063d09a20c5906044015f6040518083038186803b15801561041e575f5ffd5b505afa158015610430573d5f5f3e3d5ffd5b505050506001600160a01b0381165f9081526001602052604090205460ff16156104785760405163017f9de560e31b81526001600160a01b0382166004820152602401610157565b6001600160a01b0381165f9081526001602052604090206002015415610504576001600160a01b0381165f908152600160205260408120600201546104bd9042610668565b90506203f48081101561050257816104d8826203f480610668565b6040516361083b7f60e01b81526001600160a01b0390921660048301526024820152604401610157565b505b6040805160608101825260018082524260208084018281528486019283526001600160a01b0387165f818152928590529582209451855460ff19169015151785555184840155905160029384015582548083018455908390527f405787fa12a823e0f2b7631cc41b3ba8828b3321ca811111fa75cd3aa3bb5ace0180546001600160a01b0319169093179092555461059c9190610668565b6001600160a01b0382165f81815260036020526040908190209290925590517ff6851cad9504b534c3f275023e22970f9b848f2cd8dc713a289461377863b455906105ea9042815260200190565b60405180910390a250565b6001600160a01b0381165f9081526001602052604090205460ff1661063857604051636f8bf18b60e11b81526001600160a01b0382166004820152602401610157565b50565b5f6020828403121561064b575f5ffd5b81356001600160a01b0381168114610661575f5ffd5b9392505050565b8181038181111561068757634e487b7160e01b5f52601160045260245ffd5b92915050565b634e487b7160e01b5f52603260045260245ffd5b634e487b7160e01b5f52603160045260245ffdfea264697066735822122056c3afab006054950ac5a492cfedb2ad986994dc8b0ac04ee89680437fe2f94f64736f6c634300081c0033","linkReferences":{}},"methodIdentifiers":{"addCP(address)":"df942eea","initialize(address)":"c4d66de8","removeCP(address)":"88fff272","requireWhitelisted(address)":"ed653ef4"},"id":44}