{"abi":[{"type":"function","name":"allowance","inputs":[{"name":"owner","type":"address","internalType":"address"},{"name":"spender","type":"address","internalType":"address"}],"outputs":[{"name":"","type":"uint256","internalType":"uint256"}],"stateMutability":"view"},{"type":"function","name":"approve","inputs":[{"name":"spender","type":"address","internalType":"address"},{"name":"value","type":"uint256","internalType":"uint256"}],"outputs":[{"name":"","type":"bool","internalType":"bool"}],"stateMutability":"nonpayable"},{"type":"function","name":"balanceOf","inputs":[{"name":"account","type":"address","internalType":"address"}],"outputs":[{"name":"","type":"uint256","internalType":"uint256"}],"stateMutability":"view"},{"type":"function","name":"burn","inputs":[{"name":"amount","type":"uint256","internalType":"uint256"}],"outputs":[],"stateMutability":"nonpayable"},{"type":"function","name":"decimals","inputs":[],"outputs":[{"name":"","type":"uint8","internalType":"uint8"}],"stateMutability":"pure"},{"type":"function","name":"initialize","inputs":[],"outputs":[],"stateMutability":"nonpayable"},{"type":"function","name":"mint","inputs":[{"name":"to","type":"address","internalType":"address"},{"name":"amount","type":"uint256","internalType":"uint256"}],"outputs":[],"stateMutability":"nonpayable"},{"type":"function","name":"name","inputs":[],"outputs":[{"name":"","type":"string","internalType":"string"}],"stateMutability":"view"},{"type":"function","name":"owner","inputs":[],"outputs":[{"name":"","type":"address","internalType":"address"}],"stateMutability":"view"},{"type":"function","name":"renounceOwnership","inputs":[],"outputs":[],"stateMutability":"nonpayable"},{"type":"function","name":"symbol","inputs":[],"outputs":[{"name":"","type":"string","internalType":"string"}],"stateMutability":"view"},{"type":"function","name":"totalSupply","inputs":[],"outputs":[{"name":"","type":"uint256","internalType":"uint256"}],"stateMutability":"view"},{"type":"function","name":"transfer","inputs":[{"name":"to","type":"address","internalType":"address"},{"name":"value","type":"uint256","internalType":"uint256"}],"outputs":[{"name":"","type":"bool","internalType":"bool"}],"stateMutability":"nonpayable"},{"type":"function","name":"transferFrom","inputs":[{"name":"from","type":"address","internalType":"address"},{"name":"to","type":"address","internalType":"address"},{"name":"value","type":"uint256","internalType":"uint256"}],"outputs":[{"name":"","type":"bool","internalType":"bool"}],"stateMutability":"nonpayable"},{"type":"function","name":"transferOwnership","inputs":[{"name":"newOwner","type":"address","internalType":"address"}],"outputs":[],"stateMutability":"nonpayable"},{"type":"event","name":"Approval","inputs":[{"name":"owner","type":"address","indexed":true,"internalType":"address"},{"name":"spender","type":"address","indexed":true,"internalType":"address"},{"name":"value","type":"uint256","indexed":false,"internalType":"uint256"}],"anonymous":false},{"type":"event","name":"Initialized","inputs":[{"name":"version","type":"uint64","indexed":false,"internalType":"uint64"}],"anonymous":false},{"type":"event","name":"OwnershipTransferred","inputs":[{"name":"previousOwner","type":"address","indexed":true,"internalType":"address"},{"name":"newOwner","type":"address","indexed":true,"internalType":"address"}],"anonymous":false},{"type":"event","name":"Transfer","inputs":[{"name":"from","type":"address","indexed":true,"internalType":"address"},{"name":"to","type":"address","indexed":true,"internalType":"address"},{"name":"value","type":"uint256","indexed":false,"internalType":"uint256"}],"anonymous":false},{"type":"error","name":"ERC20InsufficientAllowance","inputs":[{"name":"spender","type":"address","internalType":"address"},{"name":"allowance","type":"uint256","internalType":"uint256"},{"name":"needed","type":"uint256","internalType":"uint256"}]},{"type":"error","name":"ERC20InsufficientBalance","inputs":[{"name":"sender","type":"address","internalType":"address"},{"name":"balance","type":"uint256","internalType":"uint256"},{"name":"needed","type":"uint256","internalType":"uint256"}]},{"type":"error","name":"ERC20InvalidApprover","inputs":[{"name":"approver","type":"address","internalType":"address"}]},{"type":"error","name":"ERC20InvalidReceiver","inputs":[{"name":"receiver","type":"address","internalType":"address"}]},{"type":"error","name":"ERC20InvalidSender","inputs":[{"name":"sender","type":"address","internalType":"address"}]},{"type":"error","name":"ERC20InvalidSpender","inputs":[{"name":"spender","type":"address","internalType":"address"}]},{"type":"error","name":"InvalidInitialization","inputs":[]},{"type":"error","name":"NotInitializing","inputs":[]},{"type":"error","name":"OwnableInvalidOwner","inputs":[{"name":"owner","type":"address","internalType":"address"}]},{"type":"error","name":"OwnableUnauthorizedAccount","inputs":[{"name":"account","type":"address","internalType":"address"}]}],"bytecode":{"object":"0x6080604052348015600e575f5ffd5b50610eb68061001c5f395ff3fe608060405234801561000f575f5ffd5b50600436106100f0575f3560e01c806370a082311161009357806395d89b411161006357806395d89b411461022e578063a9059cbb14610236578063dd62ed3e14610249578063f2fde38b1461025c575f5ffd5b806370a08231146101b0578063715018a6146101e45780638129fc1c146101ec5780638da5cb5b146101f4575f5ffd5b806323b872dd116100ce57806323b872dd14610166578063313ce5671461017957806340c10f191461018857806342966c681461019d575f5ffd5b806306fdde03146100f4578063095ea7b31461011257806318160ddd14610135575b5f5ffd5b6100fc61026f565b6040516101099190610acc565b60405180910390f35b610125610120366004610b1c565b61032f565b6040519015158152602001610109565b7f52c63247e1f47db19d5ce0460030c497f067ca4cebf71ba98eeadabe20bace02545b604051908152602001610109565b610125610174366004610b44565b610348565b60405160128152602001610109565b61019b610196366004610b1c565b61036b565b005b61019b6101ab366004610b7e565b610381565b6101586101be366004610b95565b6001600160a01b03165f9081525f516020610e615f395f51905f52602052604090205490565b61019b61038e565b61019b6103a1565b7f9016d09d72d40fdae2fd8ceac6b6234c7706214fd39c1cd1e609a0528c199300546040516001600160a01b039091168152602001610109565b6100fc610514565b610125610244366004610b1c565b610552565b610158610257366004610bb5565b61055f565b61019b61026a366004610b95565b6105a8565b7f52c63247e1f47db19d5ce0460030c497f067ca4cebf71ba98eeadabe20bace0380546060915f516020610e615f395f51905f52916102ad90610be6565b80601f01602080910402602001604051908101604052809291908181526020018280546102d990610be6565b80156103245780601f106102fb57610100808354040283529160200191610324565b820191905f5260205f20905b81548152906001019060200180831161030757829003601f168201915b505050505091505090565b5f3361033c8185856105e7565b60019150505b92915050565b5f336103558582856105f9565b61036085858561065c565b506001949350505050565b6103736106b9565b61037d8282610714565b5050565b61038b3382610748565b50565b6103966106b9565b61039f5f61077c565b565b7ff0c57e16840df040f15088dc2f81fe391c3923bec73e23a9662efc9c229c6a008054600160401b810460ff16159067ffffffffffffffff165f811580156103e65750825b90505f8267ffffffffffffffff1660011480156104025750303b155b905081158015610410575080155b1561042e5760405163f92ee8a960e01b815260040160405180910390fd5b845467ffffffffffffffff19166001178555831561045857845460ff60401b1916600160401b1785555b61049b604051806040016040528060068152602001654c756d696e6f60d01b815250604051806040016040528060038152602001624c554d60e81b8152506107ec565b6104a4336107fe565b6104c7336104b46012600a610d15565b6104c2906305f5e100610d23565b610714565b831561050d57845460ff60401b19168555604051600181527fc7f505b2f371ae2175ee4913f4499e1f2633a7b5936321eed1cdaeb6115181d29060200160405180910390a15b5050505050565b7f52c63247e1f47db19d5ce0460030c497f067ca4cebf71ba98eeadabe20bace0480546060915f516020610e615f395f51905f52916102ad90610be6565b5f3361033c81858561065c565b6001600160a01b039182165f9081527f52c63247e1f47db19d5ce0460030c497f067ca4cebf71ba98eeadabe20bace016020908152604080832093909416825291909152205490565b6105b06106b9565b6001600160a01b0381166105de57604051631e4fbdf760e01b81525f60048201526024015b60405180910390fd5b61038b8161077c565b6105f4838383600161080f565b505050565b5f610604848461055f565b90505f198114610656578181101561064857604051637dc7a0d960e11b81526001600160a01b038416600482015260248101829052604481018390526064016105d5565b61065684848484035f61080f565b50505050565b6001600160a01b03831661068557604051634b637e8f60e11b81525f60048201526024016105d5565b6001600160a01b0382166106ae5760405163ec442f0560e01b81525f60048201526024016105d5565b6105f48383836108f2565b336106eb7f9016d09d72d40fdae2fd8ceac6b6234c7706214fd39c1cd1e609a0528c199300546001600160a01b031690565b6001600160a01b03161461039f5760405163118cdaa760e01b81523360048201526024016105d5565b6001600160a01b03821661073d5760405163ec442f0560e01b81525f60048201526024016105d5565b61037d5f83836108f2565b6001600160a01b03821661077157604051634b637e8f60e11b81525f60048201526024016105d5565b61037d825f836108f2565b7f9016d09d72d40fdae2fd8ceac6b6234c7706214fd39c1cd1e609a0528c19930080546001600160a01b031981166001600160a01b03848116918217845560405192169182907f8be0079c531659141344cd1fd0a4f28419497f9722a3daafe3b4186f6b6457e0905f90a3505050565b6107f4610a2b565b61037d8282610a74565b610806610a2b565b61038b81610ac4565b5f516020610e615f395f51905f526001600160a01b0385166108465760405163e602df0560e01b81525f60048201526024016105d5565b6001600160a01b03841661086f57604051634a1406b160e11b81525f60048201526024016105d5565b6001600160a01b038086165f9081526001830160209081526040808320938816835292905220839055811561050d57836001600160a01b0316856001600160a01b03167f8c5be1e5ebec7d5bd14f71427d1e84f3dd0314c0f7b2291e5b200ac8c7c3b925856040516108e391815260200190565b60405180910390a35050505050565b5f516020610e615f395f51905f526001600160a01b03841661092c5781816002015f8282546109219190610d3a565b9091555061099c9050565b6001600160a01b0384165f908152602082905260409020548281101561097e5760405163391434e360e21b81526001600160a01b038616600482015260248101829052604481018490526064016105d5565b6001600160a01b0385165f9081526020839052604090209083900390555b6001600160a01b0383166109ba5760028101805483900390556109d8565b6001600160a01b0383165f9081526020829052604090208054830190555b826001600160a01b0316846001600160a01b03167fddf252ad1be2c89b69c2b068fc378daa952ba7f163c4a11628f55a4df523b3ef84604051610a1d91815260200190565b60405180910390a350505050565b7ff0c57e16840df040f15088dc2f81fe391c3923bec73e23a9662efc9c229c6a0054600160401b900460ff1661039f57604051631afcd79f60e31b815260040160405180910390fd5b610a7c610a2b565b5f516020610e615f395f51905f527f52c63247e1f47db19d5ce0460030c497f067ca4cebf71ba98eeadabe20bace03610ab58482610da5565b50600481016106568382610da5565b6105b0610a2b565b602081525f82518060208401528060208501604085015e5f604082850101526040601f19601f83011684010191505092915050565b80356001600160a01b0381168114610b17575f5ffd5b919050565b5f5f60408385031215610b2d575f5ffd5b610b3683610b01565b946020939093013593505050565b5f5f5f60608486031215610b56575f5ffd5b610b5f84610b01565b9250610b6d60208501610b01565b929592945050506040919091013590565b5f60208284031215610b8e575f5ffd5b5035919050565b5f60208284031215610ba5575f5ffd5b610bae82610b01565b9392505050565b5f5f60408385031215610bc6575f5ffd5b610bcf83610b01565b9150610bdd60208401610b01565b90509250929050565b600181811c90821680610bfa57607f821691505b602082108103610c1857634e487b7160e01b5f52602260045260245ffd5b50919050565b634e487b7160e01b5f52601160045260245ffd5b6001815b6001841115610c6d57808504811115610c5157610c51610c1e565b6001841615610c5f57908102905b60019390931c928002610c36565b935093915050565b5f82610c8357506001610342565b81610c8f57505f610342565b8160018114610ca55760028114610caf57610ccb565b6001915050610342565b60ff841115610cc057610cc0610c1e565b50506001821b610342565b5060208310610133831016604e8410600b8410161715610cee575081810a610342565b610cfa5f198484610c32565b805f1904821115610d0d57610d0d610c1e565b029392505050565b5f610bae60ff841683610c75565b808202811582820484141761034257610342610c1e565b8082018082111561034257610342610c1e565b634e487b7160e01b5f52604160045260245ffd5b601f8211156105f457805f5260205f20601f840160051c81016020851015610d865750805b601f840160051c820191505b8181101561050d575f8155600101610d92565b815167ffffffffffffffff811115610dbf57610dbf610d4d565b610dd381610dcd8454610be6565b84610d61565b6020601f821160018114610e05575f8315610dee5750848201515b5f19600385901b1c1916600184901b17845561050d565b5f84815260208120601f198516915b82811015610e345787850151825560209485019460019092019101610e14565b5084821015610e5157868401515f19600387901b60f8161c191681555b50505050600190811b0190555056fe52c63247e1f47db19d5ce0460030c497f067ca4cebf71ba98eeadabe20bace00a2646970667358221220fdb1cd0b21712e5c724a111344d7cf86fcce03aba1e17a08a124ad26a182223364736f6c634300081c0033","linkReferences":{}},"methodIdentifiers":{"allowance(address,address)":"dd62ed3e","approve(address,uint256)":"095ea7b3","balanceOf(address)":"70a08231","burn(uint256)":"42966c68","decimals()":"313ce567","initialize()":"8129fc1c","mint(address,uint256)":"40c10f19","name()":"06fdde03","owner()":"8da5cb5b","renounceOwnership()":"715018a6","symbol()":"95d89b41","totalSupply()":"18160ddd","transfer(address,uint256)":"a9059cbb","transferFrom(address,address,uint256)":"23b872dd","transferOwnership(address)":"f2fde38b"},"id":41}