{"abi":[{"type":"function","name":"getRoleAdmin","inputs":[{"name":"role","type":"bytes32","internalType":"bytes32"}],"outputs":[{"name":"","type":"bytes32","internalType":"bytes32"}],"stateMutability":"pure"},{"type":"function","name":"grantRole","inputs":[{"name":"role","type":"bytes32","internalType":"bytes32"},{"name":"account","type":"address","internalType":"address"}],"outputs":[],"stateMutability":"nonpayable"},{"type":"function","name":"hasRole","inputs":[{"name":"role","type":"bytes32","internalType":"bytes32"},{"name":"account","type":"address","internalType":"address"}],"outputs":[{"name":"","type":"bool","internalType":"bool"}],"stateMutability":"view"},{"type":"function","name":"initialize","inputs":[],"outputs":[],"stateMutability":"nonpayable"},{"type":"function","name":"renounceRole","inputs":[{"name":"role","type":"bytes32","internalType":"bytes32"},{"name":"callerConfirmation","type":"address","internalType":"address"}],"outputs":[],"stateMutability":"nonpayable"},{"type":"function","name":"requireRole","inputs":[{"name":"role","type":"bytes32","internalType":"bytes32"},{"name":"account","type":"address","internalType":"address"}],"outputs":[],"stateMutability":"view"},{"type":"function","name":"revokeRole","inputs":[{"name":"role","type":"bytes32","internalType":"bytes32"},{"name":"account","type":"address","internalType":"address"}],"outputs":[],"stateMutability":"nonpayable"},{"type":"event","name":"Initialized","inputs":[{"name":"version","type":"uint64","indexed":false,"internalType":"uint64"}],"anonymous":false},{"type":"event","name":"RoleAdminChanged","inputs":[{"name":"role","type":"bytes32","indexed":true,"internalType":"bytes32"},{"name":"previousAdminRole","type":"bytes32","indexed":true,"internalType":"bytes32"},{"name":"newAdminRole","type":"bytes32","indexed":true,"internalType":"bytes32"}],"anonymous":false},{"type":"event","name":"RoleGranted","inputs":[{"name":"role","type":"bytes32","indexed":true,"internalType":"bytes32"},{"name":"account","type":"address","indexed":true,"internalType":"address"},{"name":"sender","type":"address","indexed":true,"internalType":"address"}],"anonymous":false},{"type":"event","name":"RoleRevoked","inputs":[{"name":"role","type":"bytes32","indexed":true,"internalType":"bytes32"},{"name":"account","type":"address","indexed":true,"internalType":"address"},{"name":"sender","type":"address","indexed":true,"internalType":"address"}],"anonymous":false},{"type":"error","name":"AccessControlBadConfirmation","inputs":[]},{"type":"error","name":"AccessControlUnauthorizedAccount","inputs":[{"name":"account","type":"address","internalType":"address"},{"name":"neededRole","type":"bytes32","internalType":"bytes32"}]},{"type":"error","name":"CannotRevokeAdmin","inputs":[]},{"type":"error","name":"InvalidInitialization","inputs":[]},{"type":"error","name":"InvalidRole","inputs":[{"name":"role","type":"bytes32","internalType":"bytes32"}]},{"type":"error","name":"MustConfirmRenounce","inputs":[{"name":"account","type":"address","internalType":"address"}]},{"type":"error","name":"NotInitializing","inputs":[]},{"type":"error","name":"RoleManagerUnauthorized","inputs":[{"name":"account","type":"address","internalType":"address"}]}],"bytecode":{"object":"0x6080604052348015600e575f5ffd5b5061075f8061001c5f395ff3fe608060405234801561000f575f5ffd5b506004361061007a575f3560e01c80638129fc1c116100585780638129fc1c146100cc57806391d14854146100d4578063d09a20c5146100f7578063d547741f1461010a575f5ffd5b8063248a9ca31461007e5780632f2ff15d146100a457806336568abe146100b9575b5f5ffd5b61009161008c366004610678565b61011d565b6040519081526020015b60405180910390f35b6100b76100b236600461068f565b6101dd565b005b6100b76100c736600461068f565b61028c565b6100b76102c1565b6100e76100e236600461068f565b6103dc565b604051901515815260200161009b565b6100b761010536600461068f565b610404565b6100b761011836600461068f565b610458565b5f5f51602061070a5f395f51905f52820361014657505f51602061070a5f395f51905f52919050565b7f97667070c54ef182b0f5858b034beac1b6f3089aa2d3188bb1e8929f4fa9b929820361018157505f51602061070a5f395f51905f52919050565b7f9253af9d8282c03c44bbb1e9529141344c782647a2f67ba24c8954db1de58ca982036101bc57505f51602061070a5f395f51905f52919050565b60405163125a2bb760e01b8152600481018390526024015b60405180910390fd5b6101f45f51602061070a5f395f51905f5233610404565b5f51602061070a5f395f51905f52821415801561023157507f97667070c54ef182b0f5858b034beac1b6f3089aa2d3188bb1e8929f4fa9b9298214155b801561025d57507f9253af9d8282c03c44bbb1e9529141344c782647a2f67ba24c8954db1de58ca98214155b1561027e5760405163125a2bb760e01b8152600481018390526024016101d4565b61028882826104e9565b5050565b6001600160a01b03811633146102b7576040516325df9a9d60e01b81523360048201526024016101d4565b61028882336105b4565b7ff0c57e16840df040f15088dc2f81fe391c3923bec73e23a9662efc9c229c6a008054600160401b810460ff16159067ffffffffffffffff165f811580156103065750825b90505f8267ffffffffffffffff1660011480156103225750303b155b905081158015610330575080155b1561034e5760405163f92ee8a960e01b815260040160405180910390fd5b845467ffffffffffffffff19166001178555831561037857845460ff60401b1916600160401b1785555b61038f5f51602061070a5f395f51905f52336104e9565b83156103d557845460ff60401b19168555604051600181527fc7f505b2f371ae2175ee4913f4499e1f2633a7b5936321eed1cdaeb6115181d29060200160405180910390a15b5050505050565b5f918252602082815260408084206001600160a01b0393909316845291905290205460ff1690565b61041b5f51602061070a5f395f51905f52826103dc565b15801561042f575061042d82826103dc565b155b156102885760405163babcb20f60e01b81526001600160a01b03821660048201526024016101d4565b61046f5f51602061070a5f395f51905f5233610404565b5f51602061070a5f395f51905f52821480156104c157505f51602061070a5f395f51905f525f9081526020527f7d7ffb7a348e1c6a02869081a26547b49160dd3df72d1d75a570eb9b698292ed546001145b156104df57604051632d18acbb60e21b815260040160405180910390fd5b61028882826105b4565b5f828152602081815260408083206001600160a01b038516845290915290205460ff16610288575f828152602081815260408083206001600160a01b0385168452808352908320805460ff191660019081179091558584529183905201805491610552836106dc565b90915550506001600160a01b0381165f818152600160208181526040808420878552909152808320805460ff19169092179091555133929185917f2f8788117e7eff1d82e926ec794901d17c78024a50270940304540a733656f0d9190a45050565b5f828152602081815260408083206001600160a01b038516845290915290205460ff1615610288575f828152602081815260408083206001600160a01b0385168452808352908320805460ff191690558483529082905260010180549161061a836106f4565b90915550506001600160a01b0381165f818152600160209081526040808320868452909152808220805460ff191690555133929185917ff6391f5c32d9c69d2a47ea670b442974b53935d1edc7fd64eb21e047a839171b9190a45050565b5f60208284031215610688575f5ffd5b5035919050565b5f5f604083850312156106a0575f5ffd5b8235915060208301356001600160a01b03811681146106bd575f5ffd5b809150509250929050565b634e487b7160e01b5f52601160045260245ffd5b5f600182016106ed576106ed6106c8565b5060010190565b5f81610702576107026106c8565b505f19019056fea49807205ce4d355092ef5a8a18f56e8913cf4a201fbe287825b095693c21775a26469706673582212200d0a2b666d8eefc902fd85b7643ea01b27995e6e988bf2c7b23c9673b72bc37164736f6c634300081c0033","linkReferences":{}},"methodIdentifiers":{"getRoleAdmin(bytes32)":"248a9ca3","grantRole(bytes32,address)":"2f2ff15d","hasRole(bytes32,address)":"91d14854","initialize()":"8129fc1c","renounceRole(bytes32,address)":"36568abe","requireRole(bytes32,address)":"d09a20c5","revokeRole(bytes32,address)":"d547741f"},"id":35}