{"abi":[{"type":"function","name":"accessManager","inputs":[],"outputs":[{"name":"","type":"address","internalType":"contract IAccessManager"}],"stateMutability":"view"},{"type":"function","name":"electLeader","inputs":[],"outputs":[{"name":"leaderNodeId","type":"uint256","internalType":"uint256"}],"stateMutability":"nonpayable"},{"type":"function","name":"epochManager","inputs":[],"outputs":[{"name":"","type":"address","internalType":"contract IEpochManager"}],"stateMutability":"view"},{"type":"function","name":"getCurrentLeader","inputs":[],"outputs":[{"name":"","type":"uint256","internalType":"uint256"}],"stateMutability":"view"},{"type":"function","name":"getFinalRandomValue","inputs":[{"name":"epoch","type":"uint256","internalType":"uint256"}],"outputs":[{"name":"","type":"bytes32","internalType":"bytes32"}],"stateMutability":"view"},{"type":"function","name":"getLeaderForEpoch","inputs":[{"name":"epoch","type":"uint256","internalType":"uint256"}],"outputs":[{"name":"","type":"uint256","internalType":"uint256"}],"stateMutability":"view"},{"type":"function","name":"getNodesWhoRevealed","inputs":[{"name":"epoch","type":"uint256","internalType":"uint256"}],"outputs":[{"name":"","type":"uint256[]","internalType":"uint256[]"}],"stateMutability":"view"},{"type":"function","name":"initialize","inputs":[{"name":"_epochManager","type":"address","internalType":"address"},{"name":"_nodeManager","type":"address","internalType":"address"},{"name":"_nodeEscrow","type":"address","internalType":"address"},{"name":"_accessManager","type":"address","internalType":"address"},{"name":"_whitelistManager","type":"address","internalType":"address"}],"outputs":[],"stateMutability":"nonpayable"},{"type":"function","name":"nodeEscrow","inputs":[],"outputs":[{"name":"","type":"address","internalType":"contract INodeEscrow"}],"stateMutability":"view"},{"type":"function","name":"nodeManager","inputs":[],"outputs":[{"name":"","type":"address","internalType":"contract INodeManager"}],"stateMutability":"view"},{"type":"function","name":"revealSecret","inputs":[{"name":"nodeId","type":"uint256","internalType":"uint256"},{"name":"secret","type":"bytes","internalType":"bytes"}],"outputs":[],"stateMutability":"nonpayable"},{"type":"function","name":"submitCommitment","inputs":[{"name":"nodeId","type":"uint256","internalType":"uint256"},{"name":"commitment","type":"bytes32","internalType":"bytes32"}],"outputs":[],"stateMutability":"nonpayable"},{"type":"function","name":"validateLeader","inputs":[{"name":"caller","type":"address","internalType":"address"}],"outputs":[],"stateMutability":"view"},{"type":"function","name":"whitelistManager","inputs":[],"outputs":[{"name":"","type":"address","internalType":"contract IWhitelistManager"}],"stateMutability":"view"},{"type":"event","name":"CommitSubmitted","inputs":[{"name":"epoch","type":"uint256","indexed":true,"internalType":"uint256"},{"name":"nodeId","type":"uint256","indexed":true,"internalType":"uint256"},{"name":"owner","type":"address","indexed":true,"internalType":"address"}],"anonymous":false},{"type":"event","name":"Initialized","inputs":[{"name":"version","type":"uint64","indexed":false,"internalType":"uint64"}],"anonymous":false},{"type":"event","name":"LeaderElected","inputs":[{"name":"epoch","type":"uint256","indexed":true,"internalType":"uint256"},{"name":"randomValue","type":"bytes32","indexed":false,"internalType":"bytes32"},{"name":"leaderNodeId","type":"uint256","indexed":true,"internalType":"uint256"}],"anonymous":false},{"type":"event","name":"SecretRevealed","inputs":[{"name":"epoch","type":"uint256","indexed":true,"internalType":"uint256"},{"name":"nodeId","type":"uint256","indexed":true,"internalType":"uint256"},{"name":"owner","type":"address","indexed":true,"internalType":"address"},{"name":"secret","type":"bytes","indexed":false,"internalType":"bytes"}],"anonymous":false},{"type":"error","name":"InvalidInitialization","inputs":[]},{"type":"error","name":"InvalidSecret","inputs":[{"name":"nodeId","type":"uint256","internalType":"uint256"}]},{"type":"error","name":"LeaderAlreadyElected","inputs":[{"name":"epoch","type":"uint256","internalType":"uint256"}]},{"type":"error","name":"MissingReveal","inputs":[{"name":"nodeId","type":"uint256","internalType":"uint256"}]},{"type":"error","name":"NoCommitmentFound","inputs":[{"name":"epoch","type":"uint256","internalType":"uint256"},{"name":"nodeId","type":"uint256","internalType":"uint256"}]},{"type":"error","name":"NoRandomValueForEpoch","inputs":[{"name":"epoch","type":"uint256","internalType":"uint256"}]},{"type":"error","name":"NoRevealsSubmitted","inputs":[{"name":"epoch","type":"uint256","internalType":"uint256"}]},{"type":"error","name":"NotCurrentLeader","inputs":[{"name":"caller","type":"address","internalType":"address"},{"name":"leader","type":"address","internalType":"address"}]},{"type":"error","name":"NotInitializing","inputs":[]}],"bytecode":{"object":"0x6080604052348015600e575f5ffd5b506111b88061001c5f395ff3fe608060405234801561000f575f5ffd5b50600436106100e5575f3560e01c8063a218b75711610088578063e2d2bfe311610063578063e2d2bfe3146101e2578063e6a3d9dc146101f4578063e868ba7014610207578063fdcb60681461020f575f5ffd5b8063a218b75714610190578063b9074440146101af578063d372b847146101c2575f5ffd5b80637cefb20b116100c35780637cefb20b1461014157806392c853251461015757806392d1e8b01461016a5780639bb5cd3f1461017d575f5ffd5b80631459457a146100e957806326563b40146100fe5780637802bff81461012e575b5f5ffd5b6100fc6100f7366004610db6565b610222565b005b600454610111906001600160a01b031681565b6040516001600160a01b0390911681526020015b60405180910390f35b6100fc61013c366004610e23565b610380565b6101496105bf565b604051908152602001610125565b6100fc610165366004610e9a565b610913565b600254610111906001600160a01b031681565b600154610111906001600160a01b031681565b61014961019e366004610ebc565b5f9081526009602052604090205490565b6101496101bd366004610ebc565b6109d6565b6101d56101d0366004610ebc565b610a0d565b6040516101259190610ed3565b5f54610111906001600160a01b031681565b6100fc610202366004610f15565b610a6c565b610149610bf1565b600354610111906001600160a01b031681565b7ff0c57e16840df040f15088dc2f81fe391c3923bec73e23a9662efc9c229c6a008054600160401b810460ff16159067ffffffffffffffff165f811580156102675750825b90505f8267ffffffffffffffff1660011480156102835750303b155b905081158015610291575080155b156102af5760405163f92ee8a960e01b815260040160405180910390fd5b845467ffffffffffffffff1916600117855583156102d957845460ff60401b1916600160401b1785555b5f80546001600160a01b03199081166001600160a01b038d8116919091179092556001805482168c84161790556002805482168b84161790556003805482168a841617905560048054909116918816919091179055831561037457845460ff60401b19168555604051600181527fc7f505b2f371ae2175ee4913f4499e1f2633a7b5936321eed1cdaeb6115181d29060200160405180910390a15b50505050505050505050565b600154604051631502110b60e31b8152600481018590523360248201526001600160a01b039091169063a8108858906044015f6040518083038186803b1580156103c8575f5ffd5b505afa1580156103da573d5f5f3e3d5ffd5b50505f5460405163054187b160e11b81526001600160a01b039091169250630a830f62915061040e90600190600401610f35565b5f6040518083038186803b158015610424575f5ffd5b505afa158015610436573d5f5f3e3d5ffd5b505050505f5f5f9054906101000a90046001600160a01b03166001600160a01b031663b97dd9e26040518163ffffffff1660e01b8152600401602060405180830381865afa15801561048a573d5f5f3e3d5ffd5b505050506040513d601f19601f820116820180604052508101906104ae9190610f5b565b5f8181526005602090815260408083208884529091528120549192508190036104f95760405163fbbf65df60e01b815260048101839052602481018690526044015b60405180910390fd5b80848460405161050a929190610f72565b60405180910390201461053357604051639375bff960e01b8152600481018690526024016104f0565b5f8281526006602090815260408083208884529091529020610556848683611019565b505f82815260076020908152604080832080546001810182559084529190922001869055513390869084907f7834f0bd432ad93025ec129ae252d6ebfddc7274917e44973722cf7404c7c744906105b090899089906110d3565b60405180910390a45050505050565b5f805460405163054187b160e11b81526001600160a01b0390911690630a830f62906105f090600290600401610f35565b5f6040518083038186803b158015610606575f5ffd5b505afa158015610618573d5f5f3e3d5ffd5b505050505f5f5f9054906101000a90046001600160a01b03166001600160a01b031663b97dd9e26040518163ffffffff1660e01b8152600401602060405180830381865afa15801561066c573d5f5f3e3d5ffd5b505050506040513d601f19601f820116820180604052508101906106909190610f5b565b5f81815260096020526040902054909150156106b9575f90815260096020526040902054919050565b5f8181526007602090815260408083208054825181850281018501909352808352919290919083018282801561070c57602002820191905f5260205f20905b8154815260200190600101908083116106f8575b5050505050905080515f0361073757604051637fba397160e01b8152600481018390526024016104f0565b60605f5b8251811015610871575f8481526006602052604081208451829086908590811061076757610767611101565b602002602001015181526020019081526020015f20805461078790610f95565b80601f01602080910402602001604051908101604052809291908181526020018280546107b390610f95565b80156107fe5780601f106107d5576101008083540402835291602001916107fe565b820191905f5260205f20905b8154815290600101906020018083116107e157829003601f168201915b5050505050905080515f036108435783828151811061081f5761081f611101565b60200260200101516040516369af4d8560e01b81526004016104f091815260200190565b828160405160200161085692919061112c565b60408051601f1981840301815291905292505060010161073b565b5080516020808301919091205f858152600890925260408220819055835190919061089c9083611148565b90508381815181106108b0576108b0611101565b602002602001015195508560095f8781526020019081526020015f208190555085857fbd4fb013fa93f7b884312f7ec4e2879202d7cf5be5289dd3f725d8676a1229e58460405161090391815260200190565b60405180910390a3505050505090565b6001545f906001600160a01b0316635d3c373f61092e610bf1565b6040518263ffffffff1660e01b815260040161094c91815260200190565b602060405180830381865afa158015610967573d5f5f3e3d5ffd5b505050506040513d601f19601f8201168201806040525081019061098b9190611167565b9050806001600160a01b0316826001600160a01b0316146109d25760405163037069b160e61b81526001600160a01b038084166004830152821660248201526044016104f0565b5050565b5f81815260086020526040812054808203610a07576040516334e1125560e01b8152600481018490526024016104f0565b92915050565b5f81815260076020908152604091829020805483518184028101840190945280845260609392830182828015610a6057602002820191905f5260205f20905b815481526020019060010190808311610a4c575b50505050509050919050565b600154604051631502110b60e31b8152600481018490523360248201526001600160a01b039091169063a8108858906044015f6040518083038186803b158015610ab4575f5ffd5b505afa158015610ac6573d5f5f3e3d5ffd5b50505f805460405163054187b160e11b81526001600160a01b039091169350630a830f629250610af99190600401610f35565b5f6040518083038186803b158015610b0f575f5ffd5b505afa158015610b21573d5f5f3e3d5ffd5b50505050610b2e33610c70565b5f5f5f9054906101000a90046001600160a01b03166001600160a01b031663b97dd9e26040518163ffffffff1660e01b8152600401602060405180830381865afa158015610b7e573d5f5f3e3d5ffd5b505050506040513d601f19601f82011682018060405250810190610ba29190610f5b565b5f818152600560209081526040808320878452909152808220859055519192503391859184917f77f0bd251e6f20344d832cff7090722a3ad50c61a5e3a6a156ca6c58e56108769190a4505050565b5f805460408051635cbeecf160e11b8152905183926001600160a01b03169163b97dd9e29160048083019260209291908290030181865afa158015610c38573d5f5f3e3d5ffd5b505050506040513d601f19601f82011682018060405250810190610c5c9190610f5b565b5f9081526009602052604090205492915050565b60048054604051633b594fbd60e21b81526001600160a01b038481169382019390935291169063ed653ef4906024015f6040518083038186803b158015610cb5575f5ffd5b505afa158015610cc7573d5f5f3e3d5ffd5b50506001546040516336561fa360e11b81526001600160a01b0385811660048301525f94509091169150636cac3f4690602401602060405180830381865afa158015610d15573d5f5f3e3d5ffd5b505050506040513d601f19601f82011682018060405250810190610d399190610f5b565b600254604051631bf074f360e11b81526001600160a01b038581166004830152602482018490529293509116906337e0e9e6906044015f6040518083038186803b158015610d85575f5ffd5b505afa158015610d97573d5f5f3e3d5ffd5b505050505050565b6001600160a01b0381168114610db3575f5ffd5b50565b5f5f5f5f5f60a08688031215610dca575f5ffd5b8535610dd581610d9f565b94506020860135610de581610d9f565b93506040860135610df581610d9f565b92506060860135610e0581610d9f565b91506080860135610e1581610d9f565b809150509295509295909350565b5f5f5f60408486031215610e35575f5ffd5b83359250602084013567ffffffffffffffff811115610e52575f5ffd5b8401601f81018613610e62575f5ffd5b803567ffffffffffffffff811115610e78575f5ffd5b866020828401011115610e89575f5ffd5b939660209190910195509293505050565b5f60208284031215610eaa575f5ffd5b8135610eb581610d9f565b9392505050565b5f60208284031215610ecc575f5ffd5b5035919050565b602080825282518282018190525f918401906040840190835b81811015610f0a578351835260209384019390920191600101610eec565b509095945050505050565b5f5f60408385031215610f26575f5ffd5b50508035926020909101359150565b6020810160078310610f5557634e487b7160e01b5f52602160045260245ffd5b91905290565b5f60208284031215610f6b575f5ffd5b5051919050565b818382375f9101908152919050565b634e487b7160e01b5f52604160045260245ffd5b600181811c90821680610fa957607f821691505b602082108103610fc757634e487b7160e01b5f52602260045260245ffd5b50919050565b601f82111561101457805f5260205f20601f840160051c81016020851015610ff25750805b601f840160051c820191505b81811015611011575f8155600101610ffe565b50505b505050565b67ffffffffffffffff83111561103157611031610f81565b6110458361103f8354610f95565b83610fcd565b5f601f841160018114611076575f851561105f5750838201355b5f19600387901b1c1916600186901b178355611011565b5f83815260208120601f198716915b828110156110a55786850135825560209485019460019092019101611085565b50868210156110c1575f1960f88860031b161c19848701351681555b505060018560011b0183555050505050565b60208152816020820152818360408301375f818301604090810191909152601f909201601f19160101919050565b634e487b7160e01b5f52603260045260245ffd5b5f81518060208401855e5f93019283525090919050565b5f61114061113a8386611115565b84611115565b949350505050565b5f8261116257634e487b7160e01b5f52601260045260245ffd5b500690565b5f60208284031215611177575f5ffd5b8151610eb581610d9f56fea26469706673582212201a9eb7b6f52e2e81c46be8c9798cd2bb02d0781b8d780b347ce9131a3610619d64736f6c634300081c0033","linkReferences":{}},"methodIdentifiers":{"accessManager()":"fdcb6068","electLeader()":"7cefb20b","epochManager()":"e2d2bfe3","getCurrentLeader()":"e868ba70","getFinalRandomValue(uint256)":"b9074440","getLeaderForEpoch(uint256)":"a218b757","getNodesWhoRevealed(uint256)":"d372b847","initialize(address,address,address,address,address)":"1459457a","nodeEscrow()":"92d1e8b0","nodeManager()":"9bb5cd3f","revealSecret(uint256,bytes)":"7802bff8","submitCommitment(uint256,bytes32)":"e6a3d9dc","validateLeader(address)":"92c85325","whitelistManager()":"26563b40"},"id":40}