{"abi":[{"type":"function","name":"cancelWithdraw","inputs":[],"outputs":[],"stateMutability":"nonpayable"},{"type":"function","name":"deposit","inputs":[{"name":"amount","type":"uint256","internalType":"uint256"}],"outputs":[],"stateMutability":"nonpayable"},{"type":"function","name":"getBalance","inputs":[{"name":"user","type":"address","internalType":"address"}],"outputs":[{"name":"","type":"uint256","internalType":"uint256"}],"stateMutability":"view"},{"type":"function","name":"initialize","inputs":[{"name":"_accessManager","type":"address","internalType":"address"},{"name":"_token","type":"address","internalType":"address"}],"outputs":[],"stateMutability":"nonpayable"},{"type":"function","name":"releasePayment","inputs":[{"name":"from","type":"address","internalType":"address"},{"name":"to","type":"address","internalType":"address"},{"name":"amount","type":"uint256","internalType":"uint256"}],"outputs":[],"stateMutability":"nonpayable"},{"type":"function","name":"requestWithdraw","inputs":[{"name":"amount","type":"uint256","internalType":"uint256"}],"outputs":[],"stateMutability":"nonpayable"},{"type":"function","name":"requireBalance","inputs":[{"name":"user","type":"address","internalType":"address"},{"name":"amount","type":"uint256","internalType":"uint256"}],"outputs":[],"stateMutability":"view"},{"type":"function","name":"withdraw","inputs":[],"outputs":[],"stateMutability":"nonpayable"},{"type":"event","name":"Deposited","inputs":[{"name":"user","type":"address","indexed":true,"internalType":"address"},{"name":"amount","type":"uint256","indexed":false,"internalType":"uint256"},{"name":"newBalance","type":"uint256","indexed":false,"internalType":"uint256"},{"name":"escrowName","type":"string","indexed":false,"internalType":"string"}],"anonymous":false},{"type":"event","name":"Initialized","inputs":[{"name":"version","type":"uint64","indexed":false,"internalType":"uint64"}],"anonymous":false},{"type":"event","name":"PaymentReleased","inputs":[{"name":"from","type":"address","indexed":true,"internalType":"address"},{"name":"to","type":"address","indexed":true,"internalType":"address"},{"name":"amount","type":"uint256","indexed":false,"internalType":"uint256"}],"anonymous":false},{"type":"event","name":"WithdrawCancelled","inputs":[{"name":"user","type":"address","indexed":true,"internalType":"address"},{"name":"amount","type":"uint256","indexed":false,"internalType":"uint256"},{"name":"escrowName","type":"string","indexed":false,"internalType":"string"}],"anonymous":false},{"type":"event","name":"WithdrawRequested","inputs":[{"name":"user","type":"address","indexed":true,"internalType":"address"},{"name":"amount","type":"uint256","indexed":false,"internalType":"uint256"},{"name":"unlockTime","type":"uint256","indexed":false,"internalType":"uint256"},{"name":"escrowName","type":"string","indexed":false,"internalType":"string"}],"anonymous":false},{"type":"event","name":"Withdrawn","inputs":[{"name":"user","type":"address","indexed":true,"internalType":"address"},{"name":"amount","type":"uint256","indexed":false,"internalType":"uint256"},{"name":"remainingBalance","type":"uint256","indexed":false,"internalType":"uint256"},{"name":"escrowName","type":"string","indexed":false,"internalType":"string"}],"anonymous":false},{"type":"error","name":"BelowMinimumDeposit","inputs":[{"name":"provided","type":"uint256","internalType":"uint256"},{"name":"minimum","type":"uint256","internalType":"uint256"}]},{"type":"error","name":"ExistingWithdrawRequest","inputs":[{"name":"user","type":"address","internalType":"address"}]},{"type":"error","name":"InsufficientBalance","inputs":[{"name":"user","type":"address","internalType":"address"},{"name":"requested","type":"uint256","internalType":"uint256"},{"name":"available","type":"uint256","internalType":"uint256"}]},{"type":"error","name":"InsufficientContractBalance","inputs":[{"name":"requested","type":"uint256","internalType":"uint256"},{"name":"available","type":"uint256","internalType":"uint256"}]},{"type":"error","name":"InvalidInitialization","inputs":[]},{"type":"error","name":"LockPeriodActive","inputs":[{"name":"user","type":"address","internalType":"address"},{"name":"remainingTime","type":"uint256","internalType":"uint256"}]},{"type":"error","name":"NoWithdrawRequest","inputs":[{"name":"user","type":"address","internalType":"address"}]},{"type":"error","name":"NotInitializing","inputs":[]},{"type":"error","name":"TransferFailed","inputs":[]}],"bytecode":{"object":"0x6080604052348015600e575f5ffd5b50610e838061001c5f395ff3fe608060405234801561000f575f5ffd5b5060043610610085575f3560e01c8063745400c911610058578063745400c9146100cc57806384b76824146100df578063b6b55f25146100e7578063f8b2cb4f146100fa575f5ffd5b806337e0e9e6146100895780633ccfd60b1461009e578063485cc955146100a657806363220153146100b9575b5f5ffd5b61009c610097366004610ab2565b610134565b005b61009c61019e565b61009c6100b4366004610ada565b6104b0565b61009c6100c7366004610b0b565b6105c0565b61009c6100da366004610b45565b6106f2565b61009c610810565b61009c6100f5366004610b45565b6108a9565b610122610108366004610b5c565b6001600160a01b03165f9081526003602052604090205490565b60405190815260200160405180910390f35b6001600160a01b0382165f9081526003602052604090205481111561019a576001600160a01b0382165f818152600360205260409081902054905163db42144d60e01b815260048101929092526024820183905260448201526064015b60405180910390fd5b5050565b335f908152600460205260409020600281015460ff166101d357604051636d50aab560e11b8152336004820152602401610191565b6201518081600101546101e69190610b90565b4210156102365733426201518083600101546102029190610b90565b61020c9190610ba9565b604051638db6b2f360e01b81526001600160a01b0390921660048301526024820152604401610191565b8054335f9081526003602052604090205481111561028757335f818152600360205260409081902054905163db42144d60e01b81526004810192909252602482018390526044820152606401610191565b6001546040516370a0823160e01b815230600482015282916001600160a01b0316906370a0823190602401602060405180830381865afa1580156102cd573d5f5f3e3d5ffd5b505050506040513d601f19601f820116820180604052508101906102f19190610bbc565b1015610383576001546040516370a0823160e01b815230600482015282916001600160a01b0316906370a0823190602401602060405180830381865afa15801561033d573d5f5f3e3d5ffd5b505050506040513d601f19601f820116820180604052508101906103619190610bbc565b60405163b7ddd88b60e01b815260048101929092526024820152604401610191565b335f90815260036020526040812080548392906103a1908490610ba9565b9091555050335f81815260046020819052604080832083815560018082018590556002909101805460ff1916905554905163a9059cbb60e01b8152918201939093526024810184905290916001600160a01b03169063a9059cbb906044016020604051808303815f875af115801561041b573d5f5f3e3d5ffd5b505050506040513d601f19601f8201168201806040525081019061043f9190610bd3565b90508061045f576040516312171d8360e31b815260040160405180910390fd5b335f81815260036020526040908190205490517f62116a798bb58cc967874bea4d771de2f9aeec6c64189ff2e5a551072f3106f9916104a391869190600290610ca9565b60405180910390a2505050565b7ff0c57e16840df040f15088dc2f81fe391c3923bec73e23a9662efc9c229c6a008054600160401b810460ff16159067ffffffffffffffff165f811580156104f55750825b90505f8267ffffffffffffffff1660011480156105115750303b155b90508115801561051f575080155b1561053d5760405163f92ee8a960e01b815260040160405180910390fd5b845467ffffffffffffffff19166001178555831561056757845460ff60401b1916600160401b1785555b61057187876109e3565b83156105b757845460ff60401b19168555604051600181527fc7f505b2f371ae2175ee4913f4499e1f2633a7b5936321eed1cdaeb6115181d29060200160405180910390a15b50505050505050565b5f5460405163d09a20c560e01b81527f9253af9d8282c03c44bbb1e9529141344c782647a2f67ba24c8954db1de58ca960048201523360248201526001600160a01b039091169063d09a20c5906044015f6040518083038186803b158015610626575f5ffd5b505afa158015610638573d5f5f3e3d5ffd5b505050506106468382610134565b6001600160a01b0383165f908152600360205260408120805483929061066d908490610ba9565b90915550506001600160a01b0382165f9081526003602052604081208054839290610699908490610b90565b92505081905550816001600160a01b0316836001600160a01b03167f8ac5b3c2902b21b6bbb4d99ec195e28a242cb6a1777804db10b84d91e2006429836040516106e591815260200190565b60405180910390a3505050565b335f9081526003602052604090205481111561074157335f818152600360205260409081902054905163db42144d60e01b81526004810192909252602482018390526044820152606401610191565b335f9081526004602052604090206002015460ff16156107765760405163ede3885b60e01b8152336004820152602401610191565b604080516060810182528281524260208083018281526001848601818152335f81815260049095529690932094518555905190840155516002909201805460ff1916921515929092179091557f0aed8180bd84f93fd8a307d9c534f2081366c2231daec597d51911c89fdae2a69083906107f4906201518090610b90565b600260405161080593929190610ca9565b60405180910390a250565b335f908152600460205260409020600281015460ff1661084557604051636d50aab560e11b8152336004820152602401610191565b8054335f8181526004602052604080822082815560018101929092556002918201805460ff19169055517f9158b360183815903442a8fb9a892fd2e428a1a0736f0a6eeaf7b3a9ce2224169161089d91859190610cd0565b60405180910390a25050565b6801158e460913d000008110156108e557604051631e2be21160e01b8152600481018290526801158e460913d000006024820152604401610191565b6001546040516323b872dd60e01b8152336004820152306024820152604481018390526001600160a01b03909116906323b872dd906064016020604051808303815f875af1158015610939573d5f5f3e3d5ffd5b505050506040513d601f19601f8201168201806040525081019061095d9190610bd3565b50335f908152600360205260408120805483929061097c908490610b90565b9091555050335f818152600360205260409020547fa6f472afe6167674a3b4324e83eb63d201d75a960d8a52bf808fea91f960f1179083906109d46040805180820190915260038152623537b160e91b602082015290565b60405161080593929190610cf0565b6109eb610a4e565b5f80546001600160a01b038085166001600160a01b0319928316179092556001805492841692909116919091179055610a3a6040805180820190915260038152623537b160e91b602082015290565b600290610a479082610d92565b505050565b565b7ff0c57e16840df040f15088dc2f81fe391c3923bec73e23a9662efc9c229c6a0054600160401b900460ff16610a4c57604051631afcd79f60e31b815260040160405180910390fd5b80356001600160a01b0381168114610aad575f5ffd5b919050565b5f5f60408385031215610ac3575f5ffd5b610acc83610a97565b946020939093013593505050565b5f5f60408385031215610aeb575f5ffd5b610af483610a97565b9150610b0260208401610a97565b90509250929050565b5f5f5f60608486031215610b1d575f5ffd5b610b2684610a97565b9250610b3460208501610a97565b929592945050506040919091013590565b5f60208284031215610b55575f5ffd5b5035919050565b5f60208284031215610b6c575f5ffd5b610b7582610a97565b9392505050565b634e487b7160e01b5f52601160045260245ffd5b80820180821115610ba357610ba3610b7c565b92915050565b81810381811115610ba357610ba3610b7c565b5f60208284031215610bcc575f5ffd5b5051919050565b5f60208284031215610be3575f5ffd5b81518015158114610b75575f5ffd5b600181811c90821680610c0657607f821691505b602082108103610c2457634e487b7160e01b5f52602260045260245ffd5b50919050565b5f8154610c3681610bf2565b808552600182168015610c505760018114610c6c57610ca0565b60ff1983166020870152602082151560051b8701019350610ca0565b845f5260205f205f5b83811015610c975781546020828a010152600182019150602081019050610c75565b87016020019450505b50505092915050565b838152826020820152606060408201525f610cc76060830184610c2a565b95945050505050565b828152604060208201525f610ce86040830184610c2a565b949350505050565b838152826020820152606060408201525f82518060608401528060208501608085015e5f608082850101526080601f19601f830116840101915050949350505050565b634e487b7160e01b5f52604160045260245ffd5b601f821115610a4757805f5260205f20601f840160051c81016020851015610d6c5750805b601f840160051c820191505b81811015610d8b575f8155600101610d78565b5050505050565b815167ffffffffffffffff811115610dac57610dac610d33565b610dc081610dba8454610bf2565b84610d47565b6020601f821160018114610df2575f8315610ddb5750848201515b5f19600385901b1c1916600184901b178455610d8b565b5f84815260208120601f198516915b82811015610e215787850151825560209485019460019092019101610e01565b5084821015610e3e57868401515f19600387901b60f8161c191681555b50505050600190811b0190555056fea2646970667358221220ca79aacb25f5aa856ec3aa93abf8c734638957210e249aa9cac0fa6288f0b37b64736f6c634300081c0033","linkReferences":{}},"methodIdentifiers":{"cancelWithdraw()":"84b76824","deposit(uint256)":"b6b55f25","getBalance(address)":"f8b2cb4f","initialize(address,address)":"485cc955","releasePayment(address,address,uint256)":"63220153","requestWithdraw(uint256)":"745400c9","requireBalance(address,uint256)":"37e0e9e6","withdraw()":"3ccfd60b"},"id":38}