{"abi":[{"type":"function","name":"getCurrentEpoch","inputs":[],"outputs":[{"name":"","type":"uint256","internalType":"uint256"}],"stateMutability":"view"},{"type":"function","name":"getEpochState","inputs":[],"outputs":[{"name":"state","type":"uint8","internalType":"enum IEpochManager.State"},{"name":"timeLeft","type":"uint256","internalType":"uint256"}],"stateMutability":"view"},{"type":"function","name":"testCounter","inputs":[],"outputs":[{"name":"","type":"uint256","internalType":"uint256"}],"stateMutability":"view"},{"type":"function","name":"upTestCounter","inputs":[],"outputs":[],"stateMutability":"nonpayable"},{"type":"function","name":"validateEpochState","inputs":[{"name":"state","type":"uint8","internalType":"enum IEpochManager.State"}],"outputs":[],"stateMutability":"view"},{"type":"error","name":"InvalidState","inputs":[{"name":"state","type":"uint8","internalType":"enum IEpochManager.State"},{"name":"currentState","type":"uint8","internalType":"enum IEpochManager.State"}]}],"bytecode":{"object":"0x6080604052348015600e575f5ffd5b506103f58061001c5f395ff3fe608060405234801561000f575f5ffd5b5060043610610055575f3560e01c80630a830f62146100595780633e9647f41461006e5780639b09e7a714610076578063b97dd9e214610095578063d356aeb8146100ab575b5f5ffd5b61006c61006736600461029e565b6100b3565b005b61006c610112565b61007e610127565b60405161008c9291906102f7565b60405180910390f35b61009d61024c565b60405190815260200161008c565b61009d5f5481565b5f6100bc610127565b5090508160068111156100d1576100d16102c3565b8160068111156100e3576100e36102c3565b1461010e578181604051633bf2e2f960e11b8152600401610105929190610312565b60405180910390fd5b5050565b5f8054908061012083610341565b9190505550565b5f8080601e8080806101398180610359565b6101439190610359565b61014d9190610359565b6101579190610359565b6101619190610359565b61016b9042610386565b9050601e5f61017a8280610359565b90505f610188601e83610359565b90505f610196601e83610359565b90505f6101a4601e83610359565b90505f6101b2601e83610359565b9050858710156101d0575f98506101c98787610399565b9750610241565b848710156101e657600198506101c98786610399565b838710156101fc57600298506101c98785610399565b8287101561021257600398506101c98784610399565b8187101561022857600498506101c98783610399565b80871015610241576005985061023e8782610399565b97505b505050505050509091565b5f601e80808061025c8180610359565b6102669190610359565b6102709190610359565b61027a9190610359565b6102849190610359565b61028e90426103ac565b610299906001610359565b905090565b5f602082840312156102ae575f5ffd5b8135600781106102bc575f5ffd5b9392505050565b634e487b7160e01b5f52602160045260245ffd5b600781106102f357634e487b7160e01b5f52602160045260245ffd5b9052565b6040810161030582856102d7565b8260208301529392505050565b6040810161032082856102d7565b6102bc60208301846102d7565b634e487b7160e01b5f52601160045260245ffd5b5f600182016103525761035261032d565b5060010190565b8082018082111561036c5761036c61032d565b92915050565b634e487b7160e01b5f52601260045260245ffd5b5f8261039457610394610372565b500690565b8181038181111561036c5761036c61032d565b5f826103ba576103ba610372565b50049056fea264697066735822122079bdda08b888f0a54227d429b1f70fa85d38b7b8f067de1db01237c94e9641e364736f6c634300081c0033","linkReferences":{}},"methodIdentifiers":{"getCurrentEpoch()":"b97dd9e2","getEpochState()":"9b09e7a7","testCounter()":"d356aeb8","upTestCounter()":"3e9647f4","validateEpochState(uint8)":"0a830f62"},"id":36}